:020000021000EC
:10C0000000000120CDBC0300F5BC0300F7BC030019
:10C01000F9BC0300FBBC0300FDBC030000000000F2
:10C02000000000000000000000000000FFBC030052
:10C0300001BD03000000000003BD030005BD0300B7
:10C0400007BD030007BD0300BDC4030007BD030017
:10C0500085DF010007BD030011E3010007BD0300F8
:10C0600007BD030007BD030007BD030007BD0300B4
:10C0700007BD030007BD030007BD030007BD0300A4
:10C0800007BD0300A1BF030007BD030007BD0300F8
:10C0900007BD030007BD030007BD030007BD030084
:10C0A00007BD030007BD030007BD030007BD030074
:10C0B00007BD030007BD03000000000000000000F2
:10C0C00007BD030007BD030007BD030007BD030054
:10C0D0001D02020007BD030007BD030000000000B1
:10C0E0000000000000000000000000000000000050
:10C0F0000000000000000000000000000000000040
:10C10000000000000000000000000000000000002F
:10C11000000000000000000000000000000000001F
:10C40000044B05481B1A062B02D9044B03B11847ED
:10C41000704700BF07230020042300200000000015
:10C4200005490648091A891001EBD171491002D05B
:10C43000034B03B118477047042300200423002056
:10C440000000000010B5064C237843B9FFF7D8FF71
:10C45000044B13B10448AFF300800123237010BDD7
:10C460000423002000000000C031050008B5084B7F
:10C470001BB108490848AFF300800848036813B9A6
:10C48000BDE80840CCE7064B002BF9D09847F7E70A
:10C490000000000008230020C03105000023002018
:10C4A00000000000154B002B08BF134B9D46A3F561
:10C4B000803A00218B460F461348144A121A21F085
:10C4C00052F90F4B002B00D098470E4B002B00D099
:10C4D00098470020002104000D000D48002802D0DC
:10C4E0000C48AFF3008021F0B9F82000290020F0BB
:10C4F000B1F921F09FF800BF000008000000012002
:10C500000000000000000000042300209C98002090
:10C51000000000000000000008B54FF4FA701FF0A2
:10C5200031FD01F0D5FD88B14FF080430122C3F801
:10C530001C25BFF34F8F2149214BCA6802F4E062EA
:10C540001343CB60BFF34F8F00BFFDE704F02EF91C
:10C5500003F046FE03F08CFE00F090FF01F0F6F9C8
:10C5600001F0D2FB01F092FD00F0D0F901F0BCF92E
:10C5700003F094F8032000F08DF900F011FB01F0B6
:10C5800059FB03F076FE04F03FF803F077FD03F06B
:10C5900021F803F0EFFA01F029FB00F015F900F0A3
:10C5A000B9FB01F0FBFD64201FF0ECFC032000F060
:10C5B00071F9BDE8084003F00FB800BF00ED00E0DE
:10C5C0000400FA0510B586B000F09EFB01F080FD76
:10C5D00008B904F0EFF803F055FD044610B103F07C
:10C5E00093FD06E003F0C8FD204603F0E1F800F0FB
:10C5F0003FFB03F0EDFDB8B103F044FD28B100F0BE
:10C6000043F810B1082003F093FD684603F040FEA4
:10C61000039A084B32B91A7832B901221A7000F025
:10C62000ACF801E000221A7006B0BDE8104001F03D
:10C63000C7BF00BF2023002007B504230DEB030272
:10C640001E21182001F072FC019803B05DF804FB74
:10C6500010B50C4C062322461221182001F066FC6E
:10C660002388B4F9021010221BB291FBF2F193FB64
:10C67000F2F321806380B4F9043093FBF2F3A380DA
:10C6800010BD00BF2423002010B5114CFFF7E0FFC0
:10C69000B4F90030B3F5A87F01DB002010BDB4F978
:10C6A0000430002BF9DA03F0EDFCB4F9023028B9BC
:10C6B000002BF2DD074B0020186010BD002BF9DACB
:10C6C00004490C6803F1E602A242E6DA0B6010BDF1
:10C6D000242300203423002008B5FFF7B9FF0A4BBC
:10C6E000B3F90220B2F5967F0BDCB3F90020B2F566
:10C6F000967F06DCB3F904006328CCBF002001203C
:10C7000008BD002008BD00BF2423002007B502AAF1
:10C71000012302F8011D0146182001F0E3FB03B0DC
:10C720005DF804FB2DE9F042064691461D460024C3
:10C73000A5421CD9069B03EB640707F00F015B20A1
:10C74000FFF7E4FFC7F307115C20FFF7DFFF2B1BA8
:10C75000102B09EB040228BF10235E21182016B10C
:10C7600001F0E4FB01E001F0BDFB1034E0E7BDE8BF
:10C77000F082B6217E20FFF7C9BF10B594B04722E2
:10C78000002102A820F0EFFF00217C20FFF7BEFF70
:10C790004FF4807401201FF0F5FB02AA0094462399
:10C7A0005E210120FFF7BEFF34238DF8433002AA3B
:10C7B000462300945E210020FFF7B4FF03217C2074
:10C7C000FFF7A4FF14B010BD07B5002108201FF02B
:10C7D000A1FCFFF7CEFF0A201FF0D4FB00217C2034
:10C7E000FFF794FF01201FF0CDFB00215920FFF738
:10C7F0008DFF00204FF4C0530E4A00905E21FFF7DA
:10C8000091FF01215920FFF781FF0A201FF0BAFB99
:10C8100004217D20FFF77AFF28214020FFF776FFD3
:10C82000FFF7ABFF03217C2003B05DF804EBFFF7BB
:10C830006DBF00BF7CFB030007B5012301460DF16E
:10C840000702182001F072FB9DF8070003B05DF8A5
:10C8500004FB000038B50546FFF7FAFEFFF7ECFED3
:10C86000084CA0602720FFF7E7FF20732220FFF786
:10C87000E3FF1730A07194E80F0085E80F00284609
:10C8800038BD00BF24230020014B1868704700BF4B
:10C890003823002008B550B11B4B1860013806281A
:10C8A00031D8DFE800F0061012181A20220001210A
:10C8B00000E000210E201FF04FFC012116201FF088
:10C8C0004BFC01211AE0012100E000210E201FF0A5
:10C8D00043FC0021F2E7012100E000210E201FF0BF
:10C8E0003BFC012106E0012100E000210E201FF0A9
:10C8F00033FC002116201FF02FFC00211720BDE87B
:10C9000008401FF029BC08BD3823002008B50121CC
:10C910000E201FF0FFFB012116201FF0FBFB17204C
:10C9200001211FF0F7FB0020BDE80840FFF7B2BF70
:10C93000014B1868FFF7AEBF38230020DFED7B7A8C
:10C94000B4EEE70AF1EE10FA82B080F2E9809FEDD2
:10C95000787AB4EEC70AF1EE10FA0DDD37EEC00AB0
:10C960000D20FDEEC07ACDED017ABDF9043093FBC8
:10C97000F0F0C0F16300D6E0DFED6E7AB4EEE70AC6
:10C98000F1EE10FA0DDD37EE400A0920FDEEC07A17
:10C99000CDED017ABDF9043093FBF0F0C0F15A00FF
:10C9A000C1E09FED657AB4EEC70AF1EE10FA0DDD35
:10C9B00037EEC00A0720FDEEC07ACDED017ABDF951
:10C9C000043093FBF0F0C0F15000ACE0DFED5B7A97
:10C9D000B4EEE70AF1EE10FA0DDD37EE400A06205C
:10C9E000FDEEC07ACDED017ABDF9043093FBF0F095
:10C9F000C0F1460097E09FED527AB4EEC70AF1EE1F
:10CA000010FA0DDD37EEC00A0420FDEEC07ACDED40
:10CA1000017ABDF9043093FBF0F0C0F13C0082E0F4
:10CA2000DFED487AB4EEE70AF1EE10FA0DDD37EEED
:10CA3000400A0320FDEEC07ACDED017ABDF9043045
:10CA400093FBF0F0C0F132006DE0DFED3F6AB4EE31
:10CA5000E60AF1EE10FA0DDD37EEC00A0220FDEE17
:10CA6000C07ACDED017ABDF9043093FBF0F0C0F14E
:10CA7000280058E0DFED357AB4EEE70AF1EE10FA5F
:10CA8000B0EE677A0DDD36EEC00A0220FDEEC07A08
:10CA9000CDED017ABDF9043093FBF0F0C0F11E003A
:10CAA00041E0DFED2B7AB4EEE70AF1EE10FA0DDD8E
:10CAB00037EE400A0320FDEEC07ACDED017ABDF9D4
:10CAC000043093FBF0F0C0F114002CE09FED217ACC
:10CAD000B4EEC70AF1EE10FA0DDD37EEC00A0620FB
:10CAE000FDEEC07ACDED017ABDF9043093FBF0F094
:10CAF000C0F10A0017E0DFED187AB4EEE70AF1EEB4
:10CB000010FA0FDD37EE400A1220FDEEC07ACDEDAF
:10CB1000017ABDF9043093FBF0F0C0F1050002E0AA
:10CB2000642000E0002002B0704700BF008881450B
:10CB300000A07A450000754500A0704500D06C4506
:10CB400000C069450070674500C065450000644548
:10CB50000090614500705F4500A059451F201FF0FF
:10CB600035BA000007B5FFF7F9FF41F268030093FB
:10CB70004FF42E7240F6B8334FF4F8711FF0B4FC46
:10CB800020F016F80022054B20F0A2F920F058FB07
:10CB900000EE100A03B05DF804FB00BF00408F40B8
:10CBA00008B500210C201FF0B5FA002113201FF05A
:10CBB000B1FA012118201FF0ADFA012118201FF051
:10CBC000CBFAFFF7CFFFFFF7B9FE014B186008BDA6
:10CBD00040230020F7B5FFF7C1FF41F2680300933F
:10CBE0004FF42E7240F6B8334FF4F871144C154DD3
:10CBF000154F164E1FF078FC236818442B682060F0
:10CC000001332B601FF0A6F93B68C01A42F2107383
:10CC1000984211D91FF09EF92A68236893FBF2F31A
:10CC200000EE103AB8EEC00A3860FFF787FE002326
:10CC300030602B60236000E0306803B0F0BD00BFBF
:10CC40004C23002044230020882000204023002083
:10CC500008B513201FF092FA003018BF012008BD5C
:10CC600008B50C201FF08AFA003018BF012008BD5B
:10CC70001FB51FF06FF9124B1B68C01A114B1B68D0
:10CC800098421AD9FFF7A6FF0E280FDC0E4B1A7830
:10CC90009AB901220D491A7001A81FF080FC01A861
:10CCA00002F086FF01A81FF038FC06E0FFF792FFB4
:10CCB0000428C2BF044B00221A7005B05DF804FBC3
:10CCC0003C23002084200020482300207C13040003
:10CCD00008B5022003F02CFA014B01221A7008BD9E
:10CCE0003825002008B5032003F022FA014B00226A
:10CCF0001A7008BD3825002010B58B6804461FF057
:10CD000061FD204610BD0000014803F03FBF00BF99
:10CD10009423002038B5204C204D2046294603F0AE
:10CD200040FF40F2911220464FF4C87103F059FFC2
:10CD300020464FF4FA7103F051FF2946184D204662
:10CD400004F0B9F8284603F042FD0146204603F0FE
:10CD500025FF29462046134D04F073F8204612495A
:10CD600004F06FF8291D204604F06BF828460F4A9E
:10CD7000002103F0FCFD20460D4A002103F034FFA2
:10CD800020460C4A012103F02FFF204603F04FFFFD
:10CD9000BDE83840FFF7B8BF942300208A13040091
:10CDA0000C250020582300201825002089D30100DD
:10CDB000D1CC0100E5CC0100014B1878704700BFD1
:10CDC00038250020F8B5214D214C224E224FFF235B
:10CDD0001A461946284604F07DF822461F4928467F
:10CDE0001F4D20F009FC1F491F4804F03DF9142392
:10CDF00010221E49284603F085FD28461C4D224678
:10CE0000314620F0F9FB142304221A49284603F086
:10CE100079FD2846184D2246314620F0EDFB174E8D
:10CE2000394628461FF0BBFB2846154D22463146A1
:10CE300020F0E2FB394628461FF0B1FB224631467E
:10CE40002846BDE8F84020F0D7BB00BF942300205F
:10CE500080200020B1080200AA130400490E02003D
:10CE600014250020991304000C2500209E130400B3
:10CE700058230020A31304007C2300201BC50300BB
:10CE80008823002010B586B00146044603A81FF091
:10CE9000C4FB164903A81FF050FC014620461FF0B2
:10CEA000ADFB03A81FF039FBA368EBB114230022EC
:10CEB000214668461FF086FC002168461FF062FC90
:10CEC00001460B4803F0E5FC1422214603A8FFF7B6
:10CED00013FF03A920461FF0AAFB03A81FF01DFBA8
:10CEE00068461FF01AFBDFE706B010BDA813040068
:10CEF0001425002030B58FB00146082300220446D7
:10CF00000AA81FF05FFCA7490AA81FF028FC0546E5
:10CF10000AA81FF002FB15B100F0C1FAF4E12A469D
:10CF2000082321460AA81FF04DFC9F490AA81FF0BC
:10CF300016FC05460AA81FF0F0FA15B100F0B4FA85
:10CF4000E2E19A4920461FF00AFCF0B10AA8FFF777
:10CF500081FC974904A81FF022FB0A220C9901A822
:10CF60001FF07EFB01A904A81FF0DBFB014607A808
:10CF70001FF053FB07A8FFF785FF07A81FF0CDFAA6
:10CF800001A81FF0CAFA04A821E08A4920461FF030
:10CF9000E6FBF8B1884907A81FF001FBFFF71AFE6E
:10CFA0000A22014604A81FF06DFB04A907A81FF080
:10CFB000B8FB01460AA81FF030FB0AA8FFF762FF82
:10CFC0000AA81FF0AAFA04A81FF0A7FA07A81FF0E2
:10CFD000A4FA99E1794920461FF0C1FB024658B1F5
:10CFE000774907A81FF0DBFA00F046FE0A22014647
:10CFF00004A81FF059FBD8E7082321460AA81FF010
:10D00000E1FB70490AA81FF0AAFB05460AA81FF019
:10D0100084FA95B16C490AA81FF0C1FA0AA8FFF773
:10D0200031FF0AA81FF079FA0AA808222146FFF763
:10D0300063FE0AA802F0BCFD63E1644920461FF0CC
:10D040008EFB024638B162490AA81FF0A8FA0AA866
:10D05000FFF718FF55E10C2321460AA81FF0B2FB89
:10D060005C490AA81FF07BFB05460AA81FF055FA89
:10D07000002D33D0214601A80C22FFF73DFE564972
:10D0800001A81FF06CFB08B1012007E0534901A87B
:10D090001FF065FB08B1032000E00720FFF7FAFB53
:10D0A0004F4907A81FF07BFA0C22214604A8FFF77E
:10D0B00023FE04A907A81FF034FB01460AA81FF0AD
:10D0C000ACFA0AA8FFF7DEFE0AA81FF026FA04A8A9
:10D0D0001FF023FA07A81FF020FA45E02A460A238A
:10D0E00021460AA81FF06EFB3E490AA81FF037FB35
:10D0F00005460AA81FF011FA002D37D0214601A8D5
:10D100000A22FFF7F9FD384901A81FF028FB08B1F2
:10D11000322008E0354901A81FF021FB08B1C820E2
:10D1200001E04FF4AF7001F00BF8314907A81FF090
:10D1300036FA0A22214604A8FFF7DEFD04A907A853
:10D140001FF0EFFA01460AA81FF067FA0AA8FFF7D6
:10D1500099FE0AA81FF0E1F904A81FF0DEF907A85C
:10D160001FF0DBF900F0DAFF01A8CBE02A46062326
:10D1700021460AA81FF026FB1E490AA81FF0EFFA55
:10D1800005460AA81FF0C9F9B5B3062221460AA828
:10D19000FFF7B2FD0AA803F09BF80AA81FF0BDF93B
:10D1A00039E000BFAB130400B4130400BB13040048
:10D1B000C3130400CC130400D4130400DD130400D3
:10D1C000E5130400EE130400F71304000214040036
:10D1D0000914040019140400261404002A1404007D
:10D1E0002E1404003B140400A6130400A113040031
:10D1F00046140400511404000523002221460AA805
:10D200001FF0E0FA41490AA81FF0A9FA05460AA84A
:10D210001FF083F93DB13E4907A81FF0C0F904A8EB
:10D2200003F0B6F8C1E62A46082321460AA81FF0F3
:10D23000C9FA38490AA81FF092FA05460AA81FF051
:10D240006CF945B10AA808222146FFF755FD0AA846
:10D2500002F008FD55E02A46082321460AA81FF0DF
:10D26000B1FA2D490AA81FF07AFA05460AA81FF05C
:10D2700054F945B10AA808222146FFF73DFD0AA846
:10D2800002F01AFD3DE02A46082321460AA81FF0B5
:10D2900099FA22490AA81FF062FA05460AA81FF067
:10D2A0003CF945B10AA808222146FFF725FD0AA846
:10D2B00002F044FD25E02A46082321460AA81FF073
:10D2C00081FA17490AA81FF04AFA05460AA81FF072
:10D2D00024F975B92A46082321460AA81FF072FAD4
:10D2E00010490AA81FF03BFA05460AA81FF015F9D5
:10D2F00055B10AA808222146FFF7FEFC0AA802F051
:10D3000003FD0AA81FF009F90FB030BD5F14040037
:10D3100058140400651404006E140400771404000B
:10D3200080140400891404007FB5144905461FF0D9
:10D3300016FA044650B1124901A81FF030F901A8AD
:10D34000FFF7A0FD01A81FF0E8F815E0024607234B
:10D35000294601A81FF036FA0A4901A81FF0FFF973
:10D36000064601A81FF0D9F81EB1204600F087F844
:10D3700002E02846FFF7BEFD04B070BD9214040021
:10D380009A140400A514040070B50B682B4C1B699B
:10D390002B4E8AB008460D469847236830601844E3
:10D3A00016220021206004A820F0DDF92B68284611
:10D3B000DB6898473268014604A820F0AEF921499D
:10D3C00001A81FF02AF904A901A81FF0B6F9014627
:10D3D0001C481FF013F901A81FF09FF82168194895
:10D3E00002391FF0CFF903780D2B25D1216815489C
:10D3F00001391FF0C7F903780A2B1DD123681149A1
:10D400000022023B01A81FF0DDF901A90E481FF020
:10D410000EF901A81FF081F80C490A481FF055F9D0
:10D4200000230949236001A81FF0F7F801A8FFF7BE
:10D430007BFF01A81FF071F80AB070BD50230020D7
:10D4400054230020882300207C230020AA130400FA
:10D45000BFF34F8F0549064BCA6802F4E0621343DD
:10D46000CB60BFF34F8F00BFFDE700BF00ED00E0D2
:10D470000400FA053CDF704744DF7047704708B589
:10D48000044602F005FE2CB14FF080430122C3F8A0
:10D490001C2502E00120FFF7EFFFFFF7D9FF08B5D9
:10D4A00002F0F6FDFFF7D4FF10B5012003F0EAF813
:10D4B000FFF75FF901F0B6F802F0EAFD01210F2055
:10D4C0004FF0A0441EF026FE01210F201EF044FE66
:10D4D00000210D201EF01EFED4F8343723F4403313
:10D4E000C4F83437D4F8343743F40033C4F834374D
:10D4F000002113201EF00EFED4F84C3723F44033E5
:10D50000C4F84C37D4F84C3743F44033C4F84C37A4
:10D51000BDE81040FFF7AEBF30B587B00D4602F052
:10D520003BFA60B103F0E8F8684603F019F99DF89A
:10D530000240A21E5442544103F0CAF80CE003F02A
:10D54000C7F840B1684603F00BF99DF80040631F2F
:10D550005C425C4100E00446019B2B80029BAC7363
:10D5600000206B8007B030BD282010F0A9BB13B598
:10D5700002AC002104F8010D12201EF0EDFD204642
:10D58000012100F053FA012112201EF0E5FD02B046
:10D5900010BDF7B5054617462A200C461E46FFF774
:10D5A000E6FF2B0A7A1E04218DF80430EBB21544F5
:10D5B0000DEB01001A442D0A8DF805308DF8072077
:10D5C0008DF8065000F032FA2B20FFF7D0FF230A27
:10D5D0008DF80430731EE2B204211C440DEB0100EF
:10D5E0001344240A8DF805208DF807308DF8064085
:10D5F00000F01CFA2C20FFF7BAFF03B0F0BD08B50D
:10D60000012000F0D9F900211920BDE808401EF0E2
:10D61000A3BD08B5192001211EF09EFD0020BDE824
:10D62000084000F0C9B92DE9F041B1F9043088464D
:10D63000B1F90010B8F90240591AB8F906304D1C7A
:10D64000191B4C1C06461746FFF7D9FF23462A46EE
:10D65000B8F90210B8F90000FFF79BFF04FB05F1D1
:10D660003846490000F0E2F9FFF7D3FF3046BDE845
:10D67000F04110F0FBB910B50446FFF7C0FF24B12C
:10D680002920FFF774FF112003E01020FFF76FFF40
:10D690002820FFF76CFFBDE81040FFF7BABF2DE967
:10D6A000F04F01218BB019201EF034FD0121122012
:10D6B0001EF030FD01211A201EF02CFD0121092051
:10D6C0001EF028FD012119201EF046FD0121122027
:10D6D0001EF042FD01211A201EF03EFD14201EF016
:10D6E00051FC00211A201EF037FD64201EF04AFC78
:10D6F00001211A200AAC1EF02FFD64201EF042FC0E
:10D700000026FFF77CFF3620FFF731FF04F81C6D81
:10D710000121204600F08AF93A20FFF728FF05256D
:10D72000012120468DF80C5000F080F9B220FFF75F
:10D730001EFF0C273323294620468DF80F308DF825
:10D7400010308DF80E608DF80C708DF80D7000F0B3
:10D750006DF9B720FFF70BFF3523012120468DF827
:10D760000C3000F063F9BB20FFF701FF1923012102
:10D7700020468DF80C3000F059F9C020FFF7F7FE75
:10D780004FF02C0A0121204601258DF80CA000F055
:10D790004DF9C220FFF7EBFE294620468DF80C50CC
:10D7A00000F044F9C320FFF7E2FE12232946204689
:10D7B0008DF80C3000F03AF9C420FFF7D8FE4FF096
:10D7C0002008294620468DF80C8000F02FF9C6204D
:10D7D000FFF7CDFE0F23294620468DF80C3000F0D0
:10D7E00025F9D020FFF7C3FEA4238DF80C300221C9
:10D7F000A12320468DF80D3000F018F9E020FFF746
:10D80000B6FE2B208DF8110054200D218DF8130049
:10D810004C2004238DF80E108DF814008DF816108E
:10D8200018200B21D02211251F268DF80D300093D2
:10D830004FF0130B4FF023034FF03F098DF8150005
:10D840008DF8171020460E218DF80C2001928DF8CE
:10D8500019308DF80F508DF810B08DF812908DF8AA
:10D86000186000F0E3F8E120FFF781FE009B8DF8DF
:10D870000D3044238DF8133051238DF814302F23AD
:10D88000019A8DF815300E214FF0230320468DF8B4
:10D890000C208DF819308DF80E708DF80F508DF822
:10D8A00010B08DF811A08DF812908DF816608DF8DB
:10D8B00017608DF8188000F0B9F82120FFF757FEA7
:10D8C0002846FFF754FE78201EF05CFB2920FFF766
:10D8D0004EFE2846FFF74BFE2920FFF748FEFFF7D4
:10D8E00098FE0BB0BDE8F08F10B5144C92B0FFF766
:10D8F000D6FE06F071F8002211494FF4E15320469C
:10D9000010F053F807A810F029F8F023ADF81C30F8
:10D91000ADF81E3007A80B4B0A93089410F0E2F8FC
:10D92000684610F055F901238DF800306846064B23
:10D93000019310F063F912B010BD00BF3C25002028
:10D940006025002027D6010019D5010008B5012166
:10D9500002201EF0DFFB012103201EF0DBFB002173
:10D9600004201EF0D7FB012119201EF0D3FB01215A
:10D9700002201EF0F1FB012103201EF0EDFB01212E
:10D9800019201EF0E9FB0B4B0222C3F808250322E5
:10D99000C3F80C250422C3F810254FF00042C3F849
:10D9A0002425FF210022C3F80423C3F8C015C3F8BF
:10D9B000542508BD00300240074B08B9194603E062
:10D9C0000722C3F800257047D3F8002512B9C1F823
:10D9D0000025F9E7704700BF00300240D0F8083555
:10D9E0001B0230B543F4403302F5A2750D4C43F0F1
:10D9F000010344F82530CB00920003F1804303F586
:10DA0000F83302F1804202F5C2421430C3F8102507
:10DA1000C3F81405012303FA01F1034BC3F80415FD
:10DA200030BD00BF0060004000F001400129F8B5A2
:10DA300005460C4605D1082211461E48FFF7CEFFC9
:10DA40000CE01D4B0022C3F8302503F5C833C3F8A2
:10DA50005025C3F854250822C3F80425154B00218E
:10DA60000A461846FF260127FF2C05EB010EC3F8D6
:10DA7000182198BF0919C3F8102188BFFF31C3F8D6
:10DA8000202188BFFF3CC3F844E596BFC3F8484552
:10DA9000C3F848650024C0F83425C0F8382507616C
:10DAA000D3F818E1BEF1000FFAD0C0F81821002C0D
:10DAB000DAD1F8BD00300240006000400129F8B51D
:10DAC00005460C4605D1082211461E48FFF786FF81
:10DAD0000CE01D4B0022C3F8302503F5C833C3F812
:10DAE0005025C3F854250822C3F80425154B0021FE
:10DAF0000A461846FF260127FF2C05EB010EC3F846
:10DB0000182198BF0919C3F8102188BFFF31C3F845
:10DB1000202188BFFF3CC3F84425C3F84825C3F83B
:10DB200034E596BFC3F83845C3F83865002407616B
:10DB3000D0F818E1BEF1000FFAD0C0F81821002C7F
:10DB4000DAD1F8BD003002400060004008B5012085
:10DB5000FFF732FF00210520BDE808401EF0FCBAA7
:10DB600008B5052001211EF0F7FA0020BDE80840A5
:10DB7000FFF722BF2DE9F0410546FFF7E7FF0A2036
:10DB80001EF000FA174C25B92646AB274FF00108C6
:10DB90000CE0B923012120462370FFF747FF17E06F
:10DBA0007378152B14D0B378152B11D02023A370C4
:10DBB000042130230B48E370277084F80180FFF7BD
:10DBC00035FF03210748FFF779FF2378152BE7D1AD
:10DBD000FFF7C6FF0035044B18BF01251D70BDE8D7
:10DBE000F08100BFA15D0020A05D002008B50121EB
:10DBF00005201EF08FFA052001211EF0ADFA01204C
:10DC0000BDE80840FFF7B6BF10B5044C23781BB938
:10DC10001DF026FD0123237010BD00BFAB5D002069
:10DC2000034B1A781AB100221A701DF01BBD704701
:10DC3000AB5D002008B500211E201EF06BFA0549DF
:10DC400005481DF0F3FC054B01221A70BDE80840A1
:10DC5000FFF7E6BFE5DE01002DDF0100AB5D002030
:10DC6000034B187818B1FD283CBF024B1870704761
:10DC7000AA5D0020A95D0020014B1878704700BF05
:10DC8000A95D002008B5044B1B781BB11DF0ECFC0E
:10DC9000024B187008BD00BFAB5D0020AA5D0020DC
:10DCA000014B1878704700BFAE5D002010B5134BD4
:10DCB00019784FF0A04301F5E07240F20C6043F890
:10DCC00022000F4A127802F5E07443F824004FF066
:10DCD00040234FF08060C3F824050620C3F80005F8
:10DCE000C3F80815C3F80C25064B10224021C3F8D1
:10DCF000802183F804131A6010BD00BFF85D002076
:10DD0000AD5D002000E100E0FFF7D0BFF8B50746A9
:10DD100016460C46B1B12A4D28461EF06DFA4FF05A
:10DD200040230121C3F888751962C3F83455C3F83C
:10DD300038451960D3F84C2132B9D3F82421002A90
:10DD4000F8D001E00846F8BD4FF040230022C3F8A8
:10DD50004C21D3F85C211AB9D3F82421002AF8D039
:10DD60004FF040230021C3F85C1116B9D3F82421E9
:10DD70006AB14FF0402301225A61D3F80421002AEE
:10DD8000FBD04FF040230022C3F804210AE0012217
:10DD9000DA61D3F84821002AFBD04FF0402300225B
:10DDA000C3F848214FF04023D3F8242112B10022B8
:10DDB000C3F82421D3F83C452C64E0B2F8BD00BF81
:10DDC000B05D002008B5044B187004481EF014FA2A
:10DDD000034B01221A7008BDFA5D0020FC5D002093
:10DDE000AC5D002070B5324B00221A70314B4FF001
:10DDF00040241B78C4F88835012506462E48256244
:10DE0000C4F844051EF00AFAC4F84805A560D4F821
:10DE100050311BB9D4F82431002BF8D04FF04023F7
:10DE20000022C3F8502124481EF0F8F940B14FF009
:10DE30004023D3F860211AB9D3F82421002AF8D05E
:10DE40004FF040230022C3F860211A4616B9D3F8D8
:10DE5000241169B1012353614FF04023D3F8042109
:10DE6000002AFBD04FF040230022C3F804210AE02F
:10DE70000122DA61D3F84821002AFBD04FF0402379
:10DE80000022C3F848214FF04023D3F8240168B1A1
:10DE90000022C3F82421D3F8C404C3F8C404022820
:10DEA00004D004280CBF0320042070BD70BD00BF47
:10DEB000AC5D0020FA5D0020FC5D0020074B1B7864
:10DEC00010B504464BB106481EF0B6F928B92146F4
:10DED0000348BDE810401EF084B910BDAC5D0020C1
:10DEE000FC5D0020F8B50D4C0F461E46012315467B
:10DEF0002370FFF767FF3846FFF7E0FF2E44B54277
:10DF000004D015F8010BFFF7D9FFF8E70120FFF760
:10DF100069FF08B92070F8BDFF20F8BDAE5D002094
:10DF200001481EF06DB900BFB05D00202DE9F84337
:10DF3000134C0F464FF0010815461E46814684F8E3
:10DF40000080FFF73FFF3846FFF7B8FF4046FFF776
:10DF500049FF074678B9314642464846FFF7D6FEA4
:10DF60002E44B54204D0FFF7DBFF05F8010BF8E7BC
:10DF70000023237000E0FF273846BDE8F88300BF88
:10DF8000AE5D00202DE9F0414FF04024D4F864311B
:10DF90007BB10023254EC4F86431254B0125304662
:10DFA0001D701EF029F94023C4F83465C4F83835D3
:10DFB00025634FF04024D4F86831BBB11D4D1C4B94
:10DFC000DFF874800026C4F86861012728461E70B7
:10DFD00088F800701EF010F988F800602846C4F830
:10DFE00044551EF01BF9C4F8480567634FF0402301
:10DFF000D3F804214AB10022C3F804210C4A127854
:10E000001AB1D3F83C25094B1A644FF04023D3F8DA
:10E01000242142B10022C3F82421D3F8D024C3F82C
:10E02000D02401225A61BDE8F08100BFB05D00201C
:10E03000F95D0020FC5D0020AC5D002008B5074BB9
:10E04000074A99691170DA69064B07481A701EF081
:10E05000BDF80648BDE808401EF0B8B8842E05009B
:10E06000AD5D0020F85D0020B05D0020FC5D00206B
:10E07000014600B101211B201EF06EB808B100213D
:10E0800000E0012110201EF067B8000008B5012152
:10E090001B201EF03FF8012110201EF03BF800214C
:10E0A0000D201EF037F801210F201EF033F801215A
:10E0B0000F201EF051F80020FFF7DAFF0020FFF7D5
:10E0C000DDFF024B01221A7008BD00BF485E002030
:10E0D00008B50A4B1B780BB9FFF7D8FF01210F20B9
:10E0E0001EF018F801210F201EF036F80D201EF04A
:10E0F00045F8003018BF012008BD00BF485E002071
:10E1000010B50021044610201EF026F81DF022FF55
:10E11000014B2044186010BD4C5E002008B5002162
:10E1200010201EF019F81DF015FF034B1B68184452
:10E13000024B186008BD00BF8C2000204C5E002000
:10E14000014B1860704700BF8C20002010B50121E2
:10E1500004461B201EF000F81DF0FCFE014B20447D
:10E16000186010BD445E002008B51DF0F3FE094B99
:10E170001B68984202D90020FFF780FF1DF0EAFEDD
:10E18000054B1B68984204D90020BDE80840FFF702
:10E190006FBF08BD4C5E0020445E00204C4A38B57D
:10E1A0004C4B402101254FF000402024C2F80803C9
:10E1B000C3F88010C3F8801183F806431960C2F8D1
:10E1C0007C512946C2F804030F201DF0A3FF294605
:10E1D0000F201DF0C1FF00210D201DF09BFF0D2021
:10E1E0001DF0CCFF3C4B003018BF012018704FF0E1
:10E1F000A0441B78002BD4F8343714BF4FF44032BE
:10E200004FF400321343C4F83437002113201DF0BB
:10E2100081FF13201DF0B2FF304B003018BF0120EA
:10E2200018701B78002BD4F84C3714BF4FF44032D1
:10E230004FF400321343C4F84C3700210C201DF07A
:10E2400069FF0C201DF09AFF254B003018BF0120FC
:10E2500018701B78002BD4F8303714BF4FF44032BD
:10E260004FF400321343C4F8303700211C201DF056
:10E2700051FF1C201DF082FF1A4B003018BF0120F7
:10E2800018701B78002BD4F8703714BF4FF440324D
:10E290004FF400321343C4F87037002108201DF0FA
:10E2A00039FF08201DF06AFF0F4B003018BF012016
:10E2B00018701B78002BD4F8203714BF4FF440326D
:10E2C0004FF400321343C4F82037084B1D7038BD9B
:10E2D0000060004000E100E0585E0020515E002038
:10E2E0005B5E0020645E00205C5E00205A5E0020C1
:10E2F00008B5FFF7D5FC10B901F0C4FE18B1034B07
:10E3000001221A7008BD02F0F7F9F8E7655E0020F7
:10E3100008B55D4BD3F87C21002A00F0B0800022C4
:10E32000C3F87C210D201DF029FF584A00301378D6
:10E3300018BF0120984217D04FF0A0431070D3F8B7
:10E34000341721F44031C3F834171278002AD3F877
:10E35000342714BF4FF440314FF400310A43C3F85F
:10E3600034274B4B01221A7013201DF007FF494A36
:10E370000030137818BF0120984217D04FF0A04307
:10E380001070D3F84C1721F44031C3F84C171278B1
:10E39000002AD3F84C2714BF4FF440314FF400311A
:10E3A0000A43C3F84C273C4B01221A700C201DF085
:10E3B000E5FE3A4A0030137818BF0120984217D082
:10E3C0004FF0A0431070D3F8301721F44031C3F858
:10E3D00030171278002AD3F8302714BF4FF4403199
:10E3E0004FF400310A43C3F830272D4B01221A7035
:10E3F0001C201DF0C3FE2B4B00301A7818BF0120E3
:10E40000904218D04FF0A0421870D2F8701721F443
:10E410004031C2F8701719780029D2F8701714BF6C
:10E420004FF440304FF400300143C2F870171B78AE
:10E430000BB9FFF75DFF08201DF0A0FE1A4B00305E
:10E440001A7818BF0120904219D04FF0A0421870DE
:10E45000D2F8201721F44031C2F82017197800298A
:10E46000D2F8201714BF4FF440304FF4003001436E
:10E47000C2F820171B7813B90C4B01221A70024BFB
:10E48000D3F87C3108BD00BF00600040585E00201A
:10E49000505E0020515E0020525E00205B5E002036
:10E4A000675E0020645E00205C5E0020665E0020E7
:10E4B00008B5042001F03CFE01F032FEFEF7D0FB6F
:10E4C00028B14FF47A70BDE80840FFF73FBEFFF770
:10E4D00025FEBDE8084001F0CFB808B5052001F0E1
:10E4E00027FE01F01DFEFEF7B3FB28B14FF47A7052
:10E4F000BDE80840FFF72ABEFFF710FEBDE8084060
:10E5000001F0BAB810B5FFF7E3FD30B1164C1DF0BD
:10E5100021FD2368C01AC8280DD8144B1A7812B3ED
:10E5200000221A701DF016FD114B1B68BDE810404B
:10E53000C01A01F0D9B81DF00DFD2060062001F0D1
:10E54000F7FD38B9094B01221A701DF003FD084B85
:10E55000186010BD01F040F82820FFF7D1FDBDE89C
:10E56000104001F0DDBD10BD545E0020595E00205A
:10E57000605E002010B5012088B002F0B7F80720D7
:10E5800001F0D6FD70B902AC204602F0E9F808AB04
:10E5900013E903008DE8030094E80F0001F0B2F8DE
:10E5A00002F090F808B0BDE8104001F0B9BD08B520
:10E5B000092001F0BDFDBDE8084001F0B1BD00003B
:10E5C00008B5134B1A781AB100221A70FFF770FFC2
:10E5D000104B1A781AB100221A70FFF77EFF0E4B0B
:10E5E0001A781AB100221A70FFF78CFF0B4B1A78B9
:10E5F0001AB100221A70FFF7BDFF094B1A782AB131
:10E6000000221A70BDE80840FFF7D1BF08BD00BF67
:10E61000675E0020525E0020505E0020655E002094
:10E62000665E00204FF0A043D3F8342722F4403236
:10E63000C3F83427D3F83427C3F83427D3F84C274A
:10E6400022F44032C3F84C27D3F84C27C3F84C27A8
:10E65000D3F8302722F44032C3F83027D3F83027DC
:10E66000C3F83027D3F8702722F44032C3F870275C
:10E67000D3F87027C3F87027D3F8202722F440324C
:10E68000C3F82027D3F82027C3F82027014B002206
:10E690001A7070475A5E002042F2107070472820AE
:10E6A000704770477047704770477047704784B035
:10E6B00001A880E80E0004B0704784B001A880E88B
:10E6C0000E0004B070477047704770474CF25030EE
:10E6D0007047704770477047704770477047704782
:10E6E0007047704770477047704770477047704772
:10E6F0007047704770477047704770477047704762
:10E700007047704770470000054B1B681A6810B4CB
:10E71000146B0A460146184623465DF8044B184719
:10E720005821002008B50FF04DF9BDE8084003F06E
:10E7300011BE08B5FFF7F6FFBDE8084007F05AB86C
:10E7400013B5FFF7EFFF002119F07EFD0B490446DA
:10E7500019F01EFC0A4B48F28E022046002105F0FB
:10E76000A1FF2046012119F025F8002300931A4645
:10E770001946204605F0B4FD02B010BDD4BD04001A
:10E78000C020002073B50446FFF7CCFF002119F02C
:10E790005BFD1549606019F0FBFB14230093002317
:10E7A00019460222606805F09BFDFFF7BBFF0021C0
:10E7B00019F04AFD0D49E06019F0EAFBE668FFF741
:10E7C000B1FF00252B462A4601460095304605F04C
:10E7D00087FD074BE06848F28E02294602B0BDE88B
:10E7E000704005F05FBF00BFE1BD0400EABD04005A
:10E7F000C020002013B5FFF795FF00211AF0D8F8CC
:10E800000C4904461AF0E0F920460B491AF08EF93B
:10E810002046C82106F004FB2046084905F0E2F92D
:10E82000002300931A461946204605F059FD02B010
:10E8300010BD00BFEFBD0400A820002089F8010032
:10E8400013B5FFF76FFF00211AF0B2F80C49044628
:10E850001AF0BAF920460B491AF068F92046C82187
:10E8600006F0DEFA2046084905F0BCF900230093C3
:10E870001A461946204605F033FD02B010BD00BF10
:10E88000F8BD04009C200020C1F8010013B5FFF77B
:10E8900049FF00211AF08CF80C4904461AF094F94B
:10E8A00020460B491AF042F92046C82106F0B8FA72
:10E8B0002046084905F096F9002300931A461946A8
:10E8C000204605F00DFD02B010BD00BF04BE0400DF
:10E8D00090200020FDF8010013B50446FFF722FF49
:10E8E000002116F00BF90021A06019F0ADFC0949D8
:10E8F000606019F04DFB00231946A06800931A468A
:10E9000005F0EEFC0449A06802B0BDE8104005F037
:10E9100069B900BF0FBE040009E7010010B5044B40
:10E92000044640F8043B1DF0F8FD204610BD00BF32
:10E930008417040010B5054B044640F8103B1DF049
:10E94000ECFD201D1DF0E9FD204610BDF81404006B
:10E9500000B5102989B003D1202269461BF0C2FD01
:10E9600009B05DF804FB7FB5456A0446002101A8A3
:10E9700001F00CFA039B03B1019E3146284619F0C1
:10E980006DFB01A81DF0C9FD606A05F0ABFD04B088
:10E9900070BD000070B588B0064602AC02A801F058
:10E9A00077FC0FCC06F108050FC594E8030085E855
:10E9B0000300FFF7B7FE002118F092FC09497060D0
:10E9C00018F0C2FB70687622202118F0B5FA6FF0BB
:10E9D0005903009300231A461946706805F080FC1D
:10E9E00008B070BD041B04007FB505466846FDF7FE
:10E9F00031FF9DE80F0005F1380686E80F00084C4E
:10EA00002A6CE86C214619F029FB6D6DFFF734F98B
:10EA100021460246284604B0BDE8704019F01EBBEE
:10EA20007ABE04002DE9F04186B002AD04462846C6
:10EA3000FDF710FF95E80F0004F1380686E80F0097
:10EA4000FFF770FE002119F0FFFB636BE062226BA1
:10EA50008A498B4D19F002FB0A260023194602222F
:10EA6000E06A009605F03CFCFFF75CFE002116F022
:10EA700045F83C21606106F0EBF960694B2106F036
:10EA8000CFF96FF02C07002211466FF02703009793
:10EA9000606905F025FC2946606905F0A3F80021AE
:10EAA000606919F0D1FB63686062196819F070FA47
:10EAB000FFF738FE002116F021F83C21A06106F096
:10EAC000C7F9A0694B2106F0ABF9002211462823B3
:10EAD0000097A06905F004FC2946A06905F082F8BA
:10EAE0000021A06919F0B0FBA3686062196819F0F1
:10EAF0004FFAFFF717FE002116F000F83C21E06105
:10EB000006F0A6F9E0694B2106F08AF916270022E3
:10EB100011466FF027030097E06905F0E1FB2946F5
:10EB2000E06905F05FF80021E06919F08DFBE3680A
:10EB30006062196819F02CFAFFF7F4FD002115F056
:10EB4000DDFF3C21206206F083F9206A4B2106F0AC
:10EB500067F90022114628230097206A494F05F0E3
:10EB6000BFFB2946206A05F03DF80021206A19F014
:10EB70006BFB23696062196819F00AFAFFF7D2FD8E
:10EB8000002118F0ADFB4049206518F0DDFA4FF088
:10EB9000410800226FF036031146206DCDF8008049
:10EBA00005F09EFBFFF7BEFD002119F04DFB6065EF
:10EBB0000546FFF761F8394602462846002519F058
:10EBC0004DFA02231322216D606D009505F088FB3C
:10EBD000FFF7A8FD294618F083FB2C49A06418F024
:10EBE000B3FA05232A462946A06CCDF8008005F02B
:10EBF00077FBFFF797FD294619F026FB226CE064AE
:10EC0000394619F02BFAA16CE06C0095022313220F
:10EC100005F066FB334629466069012205F012FDC6
:10EC200033462946A069012205F00CFD33462946EA
:10EC3000E069012205F006FD33462946206A0122DB
:10EC400005F000FD2B4629466069292205F012FDDA
:10EC50002B462946A069292205F00CFD2B462946A2
:10EC6000E069292205F006FD2B4629222946206A63
:10EC700005F000FD06B0BDE8F08100BF1ABE04003B
:10EC800009E701007ABE0400C88D0400BC8A0400B4
:10EC90002DE9F04387B00446FFF744FD002117F04B
:10ECA000BBFAF02200251146206106F05DF82B46E4
:10ECB0002A4629462069009505F012FB294620695D
:10ECC00019F0C2FAF021A06006F0AAF83649A0684F
:10ECD00019F05EF9294603A8D4F8088001F09EF8DF
:10ECE000059B0BB1DDF80C904946404619F050F9F0
:10ECF00003A81DF012FC0523009301220021A06847
:10ED000005F0EEFA0021206919F09EFA0121E06079
:10ED100019F02CFAF021E06806F082F82249E06848
:10ED200019F036F9002103A8E56801F007F9059B01
:10ED300003B1039F3946284619F02AF903A81DF0AC
:10ED4000ECFB05230C220093A168E068002305F08A
:10ED5000C7FA0021206919F077FA0121606019F0E3
:10ED600005FAF021606806F05BF80F49606819F059
:10ED70000FF9002103A8656801F098F8059B03B11D
:10ED8000039E3146284619F003F903A81DF0C5FB80
:10ED9000052300930C220023E168606805F0A0FAC7
:10EDA00007B0BDE8F08300BFAA1304002DE9FF41BE
:10EDB00085680446002101A801F030F8039B0BB1DF
:10EDC000DDF804804146284619F0E2F801A81DF05C
:10EDD000A4FBA06805F086FB002101A8E56801F00E
:10EDE000ADF8039B03B1019F3946284619F0D0F8CE
:10EDF00001A81DF092FBE06805F074FB002101A85A
:10EE0000656801F053F8039B03B1019E3146284623
:10EE100019F0BEF801A81DF080FB606805F062FBE8
:10EE200004B0BDE8F081000037B50446FEF7ECFE03
:10EE3000FFF778FC002119F007FA1849606019F013
:10EE4000A7F86FF01303009300231A461946606871
:10EE500005F046FAFFF766FC002119F0F5F90025E8
:10EE6000A0600F4919F094F82B462A462946A0685D
:10EE7000009505F035FAFFF755FC294619F0E4F93D
:10EE80000849E06019F084F8142300932A462B46C1
:10EE90002946E06805F024FA03B030BD20BE040026
:10EEA0002FBE04002ABE040038B50446C568FDF72D
:10EEB00091FE05490246284619F0D0F8E068BDE801
:10EEC000384005F00FBB00BF33BE04002DE9F0470A
:10EED00000258AB00446FFF725FC2B462922294647
:10EEE00005F0C8FBFFF71EFC294619F0ADF9604993
:10EEF000206519F04DF81423022229460093206D55
:10EF00000A2305F0EDF9FFF70DFC294619F09CF9ED
:10EF1000022703231322216DE064009705F0E0F936
:10EF2000E66CFDF757FE02463046524E524919F044
:10EF300095F83388ADF80E3029469BB248F2890225
:10EF4000E06C05F097FB5F2205210A20D4F850A061
:10EF50000FF086FB48F2890203462946504605F029
:10EF600089FBFFF7DFFB294619F06EF94349A064DE
:10EF700019F00EF81E23294600933A466FF013034A
:10EF8000A06C05F0ADF94FF0F80348F2890229466C
:10EF9000A06C05F06FFBFFF7C5FB294619F054F98B
:10EFA000236BA063E269364919F058F82946354BBE
:10EFB000A06B48F28E0205F075FB2946BDF80E30B5
:10EFC000A06B48F2890205F055FB2B462A462946DC
:10EFD0000095A06B05F084F9FFF7A4FB294619F012
:10EFE00033F9211DE063054604A81DF016FB069BBE
:10EFF0000BB1DDF8108004F1100107A81DF00DFB26
:10F00000099B0BB1DDF81C90A36A1F49009342468F
:10F010004B46284619F022F807A81DF07EFA04A8EE
:10F020001DF07BFA3388E06B48F28902002105F07D
:10F0300021FB6FF006030D22A16B0093E06B002310
:10F0400005F04EF9FFF76EFB002119F0FDF80F49AE
:10F05000606418F09DFF00226FF0220300931146B8
:10F060006FF02703606C05F03BF90AB0BDE8F0874C
:10F0700038BE0400FC17040033BE04003CBE04008C
:10F080008DBE0400C020002040BE04004CBE040021
:10F0900070B586B006466C46684601F0F9F80FCCAC
:10F0A00006F108050FC594E8030085E80300F1693F
:10F0B0007068C1EB0111890009B206B0BDE870406B
:10F0C00017F0B0BF38B50446FEF7CAFDFD2802466A
:10F0D00009D001D898B10BE0FE2802D0FF280ED04D
:10F0E00006E00D4900E00D49A06818F0B7FF03E005
:10F0F0000B49A06818F0B2FFA06805F0F3F9E568C5
:10F10000FEF7BAFD07490246284618F0A7FFE06857
:10F11000BDE8384005F0E6B954BE040061BE040005
:10F1200076BE040071BE04002DE9F0438FB00446A2
:10F1300002AD02A801F0ACF80FCD04F120060FC615
:10F1400095E8030086E803000BA8261D01F02CFAC1
:10F150000BA930461DF06BFA0BA81DF0DEF904F187
:10F1600010050BA801F0D8F90BA928461DF05FFA8D
:10F170000BA81DF0D2F901F0B5F92368E0619B6B93
:10F1800020469847FDF726FD0E2806DC3449206D01
:10F1900018F0FEFE4FF0F8030CE0FDF71BFDDFF862
:10F1A000D0904B28CCBF2F492F49206D18F0F0FE8E
:10F1B000B9F80230206D48F28902002105F05AFAB0
:10F1C000D4F84C90FDF706FD28490246484618F051
:10F1D00045FFFDF7F1FD0146A06C29B1244B48F233
:10F1E00089029B8800210BE04FF0000361F30203CA
:10F1F00043F0F80361F30C2361F34F3348F28902C3
:10F2000005F038FA236BE2691A49A06B18F026FF63
:10F21000A06B05F067F9314608A8D4F83C901DF0C2
:10F22000FCF90A9B03B1089F29460BA81DF0F5F9CC
:10F230000D9B0BB1DDF82C80A36A0F4900933A4671
:10F240004346484618F00AFF0BA81DF066F908A8C7
:10F250001DF063F9E06B05F045F90FB0BDE8F083F0
:10F260007DBE040038BE040081BE040033BE04002D
:10F27000FC1704008DBE040040BE040030B587B00A
:10F2800004461CF067FE4FF47A733C21B0FBF3F0A8
:10F2900090FBF1F56FF03B014FF461630C4A90FB7A
:10F2A000F3F390FBF2F201FB050001FB0351009127
:10F2B0006FF0170101FB02330190064902A81EF00E
:10F2C000A1FF02AA0449606C18F0C8FE07B030BD67
:10F2D0008051010085BE040097BE0400FEF7A0BC6B
:10F2E00000F002BF032A1FB50ED183688B420BD1F9
:10F2F000FEF714FF064901A81DF051F901A8FDF71A
:10F30000C1FD01A81DF009F905B05DF804FB00BFBF
:10F31000A2BE040010B5C3698B428EB004462ED144
:10F32000032A2CD1202206A9806A1BF0DBF8A069F1
:10F3300006A918F02DFEA06905F0D4F8043406A93A
:10F3400003A81DF02CF903A920461DF070F903A8AD
:10F350001DF0E3F80B4968461DF021F92146684687
:10F360001DF0DFF9014603A81DF057F903A8FDF7CA
:10F3700089FD03A81DF0D1F868461DF0CEF80EB047
:10F3800010BD00BFAABE040070B5394B86B0012283
:10F390001A700446FFF7C6F9002118F055FF3549E9
:10F3A000A06118F0F5FD23230093002319461A46A7
:10F3B000A06904F095FFFFF7B5F9002118F044FFAC
:10F3C00000216062054603A800F0E0FC059B03B144
:10F3D000039E29493246284618F040FE03A81DF036
:10F3E0009CF83723009300231A461946606A04F0FC
:10F3F00077FFFFF797F9002115F080FB1F49E061C7
:10F4000004F0F0FB6FF01303009300231946E0694A
:10F41000052204F065FF0123002200931146E069F4
:10F4200016F098FF0021E06918F00EFF14492062E1
:10F4300018F0AEFDFFF776F900211BF0BFFB0022AC
:10F44000A06210491AF0E8FEA06A03211BF01CF824
:10F450006FF01D030093002319461A46A06A04F0BA
:10F460003FFF0949A06A04F0BDFB06B070BD00BFB4
:10F4700054600020B3BE0400B8BE040009E70100D8
:10F48000C0BE0400C5BE040051E901004B4B2DE98C
:10F49000F341012604461E70FDF7F6F96060FFF7A0
:10F4A00041F9002118F0D0FE0025A0604449DFF8A2
:10F4B000208118F06DFD2B4632462946A068009544
:10F4C00004F00EFFFFF72EF9294615F017FB6FF039
:10F4D0000907E060414604F085FB00972946E06893
:10F4E0006FF03403052204F0FBFE33462A4629461A
:10F4F000E068009616F02EFF2946E06818F0A4FE9A
:10F500003049606118F044FDFFF70CF9294615F009
:10F51000F5FA4146206104F065FB33462A46294648
:10F520002069009616F016FF35230522009729461C
:10F53000206904F0D5FE2946206918F085FE22498D
:10F54000A06118F025FDFFF7EDF829461BF0E6FC59
:10F5500007222062314615F081FA4146206A04F004
:10F5600041FB2B462A4629460097206A04F0B8FE44
:10F57000276AFDF789F92A4601B2384615F074F971
:10F58000FFF7D0F8294618F05FFE07466062206A50
:10F590001BF04AFD0D490246384618F05FFD314622
:10F5A000606A04F067FA0A2300930D222B46216A51
:10F5B000606A04F095FE02B0BDE8F081546000205E
:10F5C000F1BE040000BF040006BF04000BBF04002E
:10F5D00009E7010070470000044B054A19681160F3
:10F5E000044A1A60044B00221A6070475821002018
:10F5F00014210020585F00201821002008B5FFF7D3
:10F60000EBFF2820BDE80840FEF77ABDFFF7E4BF16
:10F61000FFF7E2BFFFF7E0BFFFF7DEBF84B001A84E
:10F6200004B080E80E00FFF7D7BF84B001A804B093
:10F6300080E80E00FFF7D0BFFFF7CEBFFFF7CCBFCB
:10F64000FFF7CABFFFF7C8BFFFF7C6BFFFF7C4BFCA
:10F65000FFF7C2BF044B054A19681160044A1A60DB
:10F66000044B00221A60704758210020142100200A
:10F67000745E002018210020044B054A19681160AF
:10F68000044A1A60044B00221A6070475821002077
:10F6900014210020885E00201821002010B50D4C98
:10F6A0000D4B22681A600D4B0D4818600D4B206001
:10F6B00000221A70FFF73DF8206803681B6898471E
:10F6C000206803685B689847FDF74EFFBDE810406F
:10F6D00010F014BA582100201421002060210020CD
:10F6E000F82000205460002010B5044600F018FDFA
:10F6F000034B186802682146526ABDE81040104763
:10F700005821002084B030B585B008AC84E80F00E3
:10F710009DF82030022B04D1204B18680368DB6869
:10F7200031E0012B04D11D4B186803681B692AE0E6
:10F73000052B0BD1194B1C680BAB93E80700256810
:10F740008DE8070008AB0ECBED690CE00C2B0DD15A
:10F75000124B1C680BAB93E8070025688DE8070087
:10F7600008AB0ECB2D6A2046A84711E0032B04D12D
:10F770000A4B186803685B6905E0042B08D1074B46
:10F78000186803689B6905B0BDE8304004B01847AD
:10F7900005B0BDE8304004B0704700BF58210020DC
:10F7A000024B18680368DB6A184700BF5821002025
:10F7B00038B5154D38B91CF0CDFB2B68C41AFFF7CE
:10F7C000EFFF84421CD91CF0C5FB104C2860104D83
:10F7D0002368286883420ED003689B689847206896
:10F7E00003685B6B984720680A4B286000221A70F8
:10F7F00003681B689847054B186803685B6898475F
:10F80000BDE8384010F07AB9F85F00205821002098
:10F810006021002054600020024B034A19681160E7
:10F82000186070475821002014210020032A15D1A8
:10F8300043698B4201D143680DE08369994201D14C
:10F84000836808E0C369994201D1C36803E0036A91
:10F85000994203D103695868FFF7DEBF7047000083
:10F86000024B186803689B6A184700BF58210020A4
:10F87000024B1A68024B1A60704700BF1421002027
:10F8800058210020FFF7F4BF102910B5044612D10B
:10F8900019F0DEF9084B834203D1BDE81040FDF7B3
:10F8A000FEBD204619F0D4F9044B834203D1BDE8D4
:10F8B0001040FFF7DDBF10BD0EBF040012BF0400F3
:10F8C000102910B5044613D119F0C2F9094B83422F
:10F8D00004D10120BDE81040FDF7D1BD204619F04C
:10F8E000B7F9054B834203D1BDE81040FFF7C0BF15
:10F8F00010BD00BF0EBF040012BF0400102910B5D8
:10F90000044612D119F0A4F9084B834203D1BDE893
:10F910001040FDF7C9BD204619F09AF9044B834207
:10F9200003D1BDE81040FFF7A3BF10BD0EBF040018
:10F9300012BF040038B5C3688B42044608D1032ABD
:10F9400006D14068FCF7A6FFBDE83840FFF790BF3E
:10F950002369994208D1032A06D1FFF789FF2320A2
:10F96000BDE83840FEF7CCBB236A99420FD1102A7C
:10F970000DD108461BF058FB054905460246606A52
:10F9800018F06CFB2846BDE83840FCF783BF38BD53
:10F990000BBF0400FFF76CBF014B1878704700BF26
:10F9A000546000200A490B4B0A681A600A4B0B4846
:10F9B0001A680068013282421A6001DC002A01DA0A
:10F9C00000221A601A68064B53F822300B60704709
:10F9D000582100201421002018210020B4200020EC
:10F9E00004210020FFF7DEBFFFF7DCBF0A490B4B05
:10F9F0000A681A600A4B0B481A680068013A002A24
:10FA00001A6001DB824200DD18601A68064B53F869
:10FA100022300B60704700BF5821002014210020C5
:10FA200018210020B420002004210020FFF7DEBFB1
:10FA3000FFF7DCBF70B52D4D2D4C2E4B2E4E2846BA
:10FA4000214640F8043B1CF0AAFD214605F11000B8
:10FA50001CF0A5FD3246294928461DF0CDFD284B56
:10FA6000284A1A60284B294A1A60294B294A1A60E9
:10FA7000294B2A4A2A4D1A602A4B2B4A1A602846DB
:10FA80002A4B40F8043B21461CF089FD32462849A8
:10FA900028461DF0B1FD274B274A1A60274B2848FE
:10FAA0001968284B01221A63274A5A60274A9A602C
:10FAB000274ADA60274A1A6118605963264B0222E6
:10FAC0001A63264A5A609A60DA601A6118605963AC
:10FAD000234B03221A63234A5A60234A9A60234A1B
:10FAE000DA60234A186059631A6170BD585F0020BC
:10FAF000AA130400F81404008020002035E9010056
:10FB0000C85F00203C150400745E00203C16040011
:10FB1000AC5E002080160400D85F002000170400AF
:10FB2000D45E0020885E0020401704008417040083
:10FB30001DE90100685E0020C41704005C2100205C
:10FB4000C0160400005F0020B8200020D420002050
:10FB5000FC200020DC200020FC5F0020E4200020AE
:10FB600058600020EC20002050210020442100207B
:10FB70003C2100207047F8B58E6807460D460024EA
:10FB8000B4420FDA214628461CF0FCFD03781F2BF7
:10FB900001D90134F4E70122214628461CF03AFE3F
:10FBA000013EEDE7294638461CF0A8FC3846F8BD72
:10FBB0002DE9F0412C218AB004461CF0FFFD471CC2
:10FBC0003A462C2120461CF0EBFD461C804632466E
:10FBD0002C2120461CF0E4FD434605463A462146CA
:10FBE00001A81CF0EFFD2B463246214607A81CF069
:10FBF000E9FD07A81CF027FE07A81CF08EFCA368EF
:10FC00006A1C214607A81CF0DDFD07A81CF01BFE9E
:10FC100007A81CF082FC01A904A81CF0FEFC04A9A2
:10FC200007A8FFF7A8FF07A90D481CF000FD07A8CB
:10FC30001CF073FC04A81CF070FC012000F078FAA2
:10FC4000FFF708FDFEF76AFA6420FEF77FFA00F07E
:10FC500067FA01A81CF061FC0AB0BDE8F08100BFA2
:10FC6000B060002010B58AB00446114901A81CF00C
:10FC700096FC214601A81CF054FD014604A81CF086
:10FC8000CCFC04A907A8FFF776FF07A909481CF0D8
:10FC9000CEFC07A81CF041FC04A81CF03EFC01A807
:10FCA0001CF03BFCFEF73AFA00F03AFA0AB010BD3D
:10FCB00064BF0400E060002010B58AB0044610491B
:10FCC00001A81CF06CFC214601A81CF02AFD01468D
:10FCD00004A81CF0A2FC04A907A8FFF74CFF07A981
:10FCE00008481CF0A4FC07A81CF017FC04A81CF092
:10FCF00014FC01A81CF011FC00F012FA0AB010BDAF
:10FD00006BBF0400EC6000207FB5014668461CF024
:10FD100084FC694603A8FFF72EFF03A906481CF0E0
:10FD200086FC03A81CF0F9FB68461CF0F6FB00F00B
:10FD3000F7F907B05DF804FBC860002010B58AB081
:10FD40000446104901A81CF02AFC214601A81CF019
:10FD5000E8FC014604A81CF060FC04A907A8FFF712
:10FD60000AFF07A908481CF062FC07A81CF0D5FB95
:10FD700004A81CF0D2FB01A81CF0CFFB00F0D0F9C6
:10FD80000AB010BD78BF0400D460002070B5204BCD
:10FD900086B005460C4631B99A6822B11C492846FE
:10FDA0001CF03BFC31E09B68194E9C4214D9314653
:10FDB00003A81CF032FCB3680026E41AA64205DA58
:10FDC000144903A81CF09EFC0136F7E703A9284656
:10FDD0001CF094FB03A816E0E0D2E31E002231469B
:10FDE00068461CF0EFFC694603A81CF016FC0A49A3
:10FDF00003A81CF0A2FC014628461CF00EFC03A838
:10FE00001CF08BFB68461CF088FB284606B070BDD2
:10FE1000E0600020B031050080BF040070B5204BC9
:10FE200086B005460C4631B99A6822B11C4928466D
:10FE30001CF0F3FB31E09B68194E9C4214D931460B
:10FE400003A81CF0EAFBB3680026E41AA64205DA10
:10FE5000144903A81CF056FC0136F7E703A928460D
:10FE60001CF04CFB03A816E0E0D2E31E0022314652
:10FE700068461CF0A7FC694603A81CF0CEFB0A49A3
:10FE800003A81CF05AFC014628461CF0C6FB03A838
:10FE90001CF043FB68461CF040FB284606B070BDD2
:10FEA000EC600020B031050080BF040070B5204B2D
:10FEB00086B005460C4631B99A6822B11C492846DD
:10FEC0001CF0ABFB31E09B68194E9C4214D93146C3
:10FED00003A81CF0A2FBB3680026E41AA64205DAC8
:10FEE000144903A81CF00EFC0136F7E703A92846C5
:10FEF0001CF004FB03A816E0E0D2E31E002231460A
:10FF000068461CF05FFC694603A81CF086FB0A49A2
:10FF100003A81CF012FC014628461CF07EFB03A837
:10FF20001CF0FBFA68461CF0F8FA284606B070BDD3
:10FF3000C8600020B031050080BF040070B5204BC0
:10FF400086B005460C4631B99A6822B11C4928464C
:10FF50001CF063FB31E09B68194E9C4214D931467A
:10FF600003A81CF05AFBB3680026E41AA64205DA7F
:10FF7000144903A81CF0C6FB0136F7E703A928467D
:10FF80001CF0BCFA03A816E0E0D2E31E00223146C2
:10FF900068461CF017FC694603A81CF03EFB0A49A2
:10FFA00003A81CF0CAFB014628461CF036FB03A838
:10FFB0001CF0B3FA68461CF0B0FA284606B070BDD3
:10FFC000D4600020B031050080BF0400F8B5204E99
:10FFD000204F214D214C314638461CF0E0FA38467E
:10FFE0001F4F2A4621461DF007FB314638461CF0BC
:10FFF000D6FA38461B4F2A4621461DF0FDFA3146F7
:020000022000DC
:1000000038461CF0CCFA3846174F2A4621461DF0D8
:10001000F3FA314638461CF0C2FA3846134F2A46E6
:1000200021461DF0E9FA314638461CF0B8FA384648
:100030000F4F2A4621461DF0DFFA314638461CF0A4
:10004000AEFA2A4621463846BDE8F8401DF0D4BA3B
:10005000B0310500B0600020802000201BC50300E7
:10006000E0600020EC600020C8600020D460002028
:10007000BC6000203BDF704748DF70470120FFF77E
:10008000F9BF0000014B1878704700BFF8600020EE
:1000900008B5012000F0F6FA0020FCF7FBFBFDF7A5
:1000A00063FAFFF799FA0120FFF782FBFDF7B8FD2D
:1000B0000020FDF7DDFF0020FDF7E0FF0020FDF749
:1000C000DAFA084A0023C2F8003502F5A832C2F86D
:1000D000003502F5A042C2F8003502F58052C2F8A0
:1000E000003508BD00700040064B10B51C7844B9BF
:1000F00001221A70FFF7CCFF2046BDE8104000F047
:10010000F5BA10BDF860002008B5FFF7B5FF034B46
:100110004FF48002C3F8802108BD00BF00E100E079
:1001200008B51BF017FF014B186008BDFC600020EC
:1001300070B50F4D2C780646BCB1002000F0A2FA35
:100140000C4B1E6000232B70FFF7EAFF0120FDF728
:1001500092FAFCF7EDFBFCF77BFD054618B1FFF7C3
:100160003BFA2C4601E0FFF787FA204670BD00BF3E
:10017000F86000200861002038B5124C1BF0EAFE40
:100180002368C01AB0F5967F1AD91BF0E3FE2060F1
:100190001BF0E0FE0C4B1C68041BFFF761FB0B4BD4
:1001A0001B68082B054609D100F09AFA30B9FCF714
:1001B00093FA18B9BDE83840FFF796BFAC42F9D8BA
:1001C00038BD00BF04610020FC60002008610020F1
:1001D000024B002218781A70704700BF006100209F
:1001E0000C4B1022E021C3F8842183F824135A60B9
:1001F000094B0022C3F8082540F21F52C3F84025DE
:100200004FF48032C3F80423C3F8442301221A6058
:10021000704700BF00E100E000400240114B07B50D
:10022000D3F8401101291AD10022C3F84021D3F894
:10023000042502F21F52C3F84025D3F84031019340
:10024000019B094B1970094B1B780BB9FDF78CF911
:10025000FDF78AFFFDF724FD08B9FDF713FD03B094
:100260005DF804FB0040024000610020F8600020BF
:10027000704707B540F2E473019300220A2300930C
:1002800011460C201BF0ACFB03B05DF804FB000032
:1002900070B506461BF09CFB0C4C20601BF08EFBDF
:1002A00060601BF081FBA0601BF060FBE0601BF056
:1002B00067FB20611BF06EFB60610FCC35460FC5FC
:1002C00094E8030085E80300304670BD0C6100200F
:1002D0002DE9F04387B0044601460423002203A819
:1002E0001CF070FA03A81CF0AEFA814603A81CF0BB
:1002F00014F921460623042203A81CF063FA03A87C
:100300001CF0A1FA804603A81CF007F92146082337
:10031000062203A81CF056FA03A81CF094FA07461C
:1003200003A81CF0FAF821460A23082203A81CF0AF
:1003300049FA03A81CF087FA054603A81CF0EDF85B
:100340000C230DEB030021460A221CF03BFA03A804
:100350001CF079FA064603A81CF0DFF80C220DEB1E
:10036000020021460E231CF02DFA03A81CF06BFAA4
:10037000044603A81CF0D1F88DE800033B46224652
:10038000314628461BF02CFB07B0BDE8F083000087
:100390001FB504461BF01CFB0A22014620461CF038
:1003A00071F91BF00BFB092803DC2B4920461CF0DC
:1003B000A9F91BF003FB0A22014601A81CF062F90F
:1003C00001A920461CF09AF901A81CF0A6F81BF020
:1003D000EBFA092803DC204920461CF093F91BF0B6
:1003E000E3FA0A22014601A81CF04CF901A92046B3
:1003F0001CF084F901A81CF090F81BF0B7FA09284A
:1004000003DC154920461CF07DF91BF0AFFA0A22E7
:10041000014601A81CF036F901A920461CF06EF92E
:1004200001A81CF07AF81BF0ABFA092803DC0A4992
:1004300020461CF067F91BF0A3FA0A22014601A826
:100440001CF020F901A920461CF058F901A81CF065
:1004500064F8204604B010BD28140400F0B5184D0F
:1004600007468E4616460FCD8DB06C460FC40FCD95
:100470000FC495E80F0084E80F00BEF1020FCCBF57
:100480003246721E042092FBF0F010446FF06303BA
:1004900092FBF3F318444FF4C87392FBF3F20CABE6
:1004A00003EB8E0E02445EF8340C02443A440720FB
:1004B00092FBF0F0C0EBC000101AC0B20DB0F0BD5E
:1004C00084BF040038B51BF06FFA04461BF076FABF
:1004D00005461BF07DFA294602462046BDE8384015
:1004E000FFF7BCBF70B586B068466C46FFF7D0FE1C
:1004F0000FCC084E35460FC594E8030085E803008D
:10050000184623B10C2B03DDA3F10C0000E00C20F6
:1005100006B070BD0C61002010B504461BF04EFA09
:1005200001380B281FD8DFE800F006080A0C0E106F
:10053000121416181A1C0F4916E00F4914E00F493F
:1005400012E00F4910E00F490EE00F490CE00F498F
:100550000AE00F4908E00F4906E00F4904E00F499F
:1005600002E00F4900E00F4920461CF018F8204631
:1005700010BD00BFD2BF0400D6BF0400DABF040024
:10058000DEBF0400E2BF0400E6BF0400EBBF0400CE
:10059000F0BF0400F4BF0400F8BF0400FCBF040077
:1005A00000C0040004C0040010B50446FFF78AFF31
:1005B000062813D8DFE800F00406080A0C0E100025
:1005C00009490CE009490AE0094908E0094906E03F
:1005D000094904E0094902E0094900E009492046C7
:1005E0001BF0DDFF204610BD0AC004000EC0040051
:1005F00012C0040016C004001AC004001EC004008B
:1006000022C0040026C004001A4B70B51D6885BBCB
:10061000012421460A201C601BF07CFD29461C2079
:100620001BF078FD21460A201BF096FD32201BF0BE
:10063000A9FC29460A201BF08FFD05201BF0A2FC17
:100640000D4D21460A201BF087FD32201BF09AFC3D
:1006500023460A4A28781521FDF768FC05201BF07F
:1006600091FC2878064A0323A721BDE87040FDF7D6
:100670005DBC70BD28610020682100204061002021
:100680004161002013B5002104460A201BF064FDDF
:1006900005201BF077FC0A2001211BF05DFD3220B4
:1006A0001BF070FC4CB102AA0548032302F8013D7F
:1006B000A52101230078FDF715FC02B010BD00BF95
:1006C00068210020014B01221A707047256100202B
:1006D000024B002218781A70704700BF2561002075
:1006E000014B1878704700BF24610020014B18703F
:1006F000704700BF24610020164B1B6807B50BB97B
:10070000FFF782FF144806236A4601210078FDF7AF
:100710000DFC124B9DF800201A709DF801205A70B4
:100720009DF802209DF80310596092119A70FF29DC
:100730009DF805209A60184606D1FF2A04D1DA6890
:100740005A601A699A6001E0C160026103B05DF805
:1007500004FB00BF28610020682100202C610020DC
:1007600070B5054D064604460FCD0FC495E803004D
:1007700084E80300304670BD2C6100200A4B002243
:10078000C3F80C25C003C3F80C254FF47A7290FB14
:10079000F2F0C3F80405D3F8082542F00102C3F8CB
:1007A000082501221A6070470000014042F21070D3
:1007B000FFF7E4BF024B034AC3F80026704700BFAF
:1007C000000001403546526E01608280704700682B
:1007D00070478088704729DF704728DF70470368BB
:1007E0001868013018BF0120704708B54FF08053DA
:1007F0001A690368B3FBF2F31846FFF7EEFF1128FE
:10080000FAD008BD38B504460D461946FFF7EDFF8E
:100810008B081A4629462068FFF7DDFF1128F8D01B
:1008200038BD10B502680846043A441AA34204D9F8
:1008300052F8044F40F8044BF7E710BD0B684360D3
:100840008B8803817047002343600381704708B59C
:100850000160FFF7F8FF08BD807A7047C0687047F5
:10086000007C704700207047C368585C704770B5C3
:100870000D46114602680446D6691A46B047012360
:10088000A374A36923B121462846BDE870401847E8
:1008900070BD70B5044608460D461DF0F7FC236890
:1008A000C2B229462046DB69BDE870401847000007
:1008B000044B10B504460360C06808B11CF016FF75
:1008C000204610BD34C0040010B50446FFF7F0FF09
:1008D00020461BF0D3FF204610BD10B5837A9A4204
:1008E000044628BF1A460274C0681CF016FF6069EF
:1008F00028B1036821461B68BDE810401847012055
:1009000010BD000070B504461D461646043042F680
:10091000030200F075F8142D4FF0000228460A4B30
:10092000236028BF1420A072E26022746674A2744F
:10093000E2746261A261E261226215B11CF0CEFE36
:10094000E060204670BD00BF34C00400407C7047AA
:10095000C07C70470346002ADA7414BF07220822BD
:10096000084653F822200AB11946104770470B2950
:100970009CBF063140F821207047416170477047A5
:1009800070477047002070477047704700207047DD
:1009900000207047002070470020704700207047FB
:1009A00000207047002070470020704700207047EB
:1009B0000020704700207047002070477047704744
:1009C0007047704710B504461BF058FF204610BD15
:1009D000054A02606422828001210022C2800281D5
:1009E0008172C2600261704764C004000161704797
:1009F000818070478A4238BF0A46C18002817047B1
:100A000010B50446FFF7E0FE024A13780133137075
:100A1000204610BD44610020014B1878704700BF8C
:100A200044610020C06803681B6A1847A0F10400F5
:100A3000FFF7F8BFC06803685B6A1847A0F10400BD
:100A4000FFF7F8BFC06803689B6A1847A0F104006D
:100A5000FFF7F8BFC0680368DB6A1847A0F104001D
:100A6000FFF7F8BFC06803681B6B1847A0F10800C8
:100A7000FFF7F8BFC06803685B6B1847A0F1080078
:100A8000FFF7F8BFC06803689B6B1847A0F1080028
:100A9000FFF7F8BFC06810B40468E46BA4465DF8C3
:100AA000044B6047A0F10800FFF7F4BFC06803687B
:100AB0001B6C1847A0F10800FFF7F8BFC068036877
:100AC0005B6C1847A0F10800FFF7F8BFC068036827
:100AD0009B6C1847A0F10800FFF7F8BFC0680368D7
:100AE000DB6C1847A0F10800FFF7F8BFD0F87031B1
:100AF00013B100F5AE7018477047D0F8743113B1D8
:100B000000F5AE701847704730B414461A46236893
:100B10005D6A9DF8083000F5AE71AC46204630BCE9
:100B200060477047704770B5054600F5AE741146D2
:100B30002046FFF783FED5F868311BB12046BDE89B
:100B40007040184770BDD0F86C3110B500F5AE7428
:100B50000BB1204698472046BDE81040FFF773BE12
:100B600010B4144600F5AE711A4620465DF8044BE9
:100B7000FFF7F0BE10B4144600F5AE711A462046D9
:100B80009DF804305DF8044B00F050BAC06803686B
:100B9000DB681847C06803681B691847C0F88810ED
:100BA0007047C0F89810704738B5D0F8A4300446A4
:100BB0000D463BB900F016FA00B280001CF08EFD25
:100BC000C4F8A40094F8A820D4F8A43043F8225024
:100BD00094F8A830013384F8A83038BDC068FFF716
:100BE00007BFC068FFF706BF0F299CBF5A3140F806
:100BF0002120704710B50446FFF70EFF00B28000B9
:100C00001CF06CFD04F1AC03036004F1B803436015
:100C100004F1DC03836004F1FC03C36004F5847316
:100C20000361052384F8A030C4F89C0010BD2DE9B1
:100C3000F043D0F88C10A5B0002304468DF81C308A
:100C4000E1B10DA800F018FA0DA800F047FA02284B
:100C500005468CBF152314238DF84C000DA88DF884
:100C60004D3000F039FA2A460146C5F114050DF160
:100C70004E001CF052FDEDB2012601E016250E4695
:100C8000D4F8881039B30DA800F0F6F90DA800F0DB
:100C900025FA431CAB4280461DDA1627774324AB66
:100CA0003B4402288CBF0622022203F8440C03F8BE
:100CB000432C0DA800F010FA24AB1F440146424615
:100CC000A7F14200023D1CF028FD0136C8EB0505E6
:100CD000F6B205F0FF05D4F89010D1B194F8942045
:100CE000BAB1022D15D9531C1620AB4200FB06F0F9
:100CF00024AB0344A4BF023DEAB2FF2503F8442C11
:100D000003F8435C24AB184442381CF006FD01365E
:100D1000F6B2D4F89850BDB128461DF0B7FAC0B26B
:100D200014288ABF14238DF81C008DF81C309DF800
:100D30001C2090428CBF082009208DF81D002946F8
:100D40000DF11E001CF0E9FCD4F89C3013B92046CC
:100D5000FFF750FF002742F6030804F1040994F856
:100D6000A0309F4205DB002742F6030804F1080982
:100D70001BE0D4F89C3053F827502846FFF729FD94
:100D8000404506D10DB1281F00E028464946FFF72F
:100D9000F4FD0137E3E7D4F8A43053F82750284690
:100DA000FFF717FD404505D0013794F8A8309F4262
:100DB000F1DB07E00DB1281F00E02846494600F0AE
:100DC00049F9F1E74BB104F594712046FFF7ECFEC9
:100DD00004F59A712046FFF7E7FEE06894F8A81042
:100DE00002680491D4F8A410039194F8A010029121
:100DF0009DF81C30D4F89C10019107A90033009194
:100E000018BF01239568314613AAA847E068036814
:100E10001B6D984725B0BDE8F08338B5D0F89C30FD
:100E200004460D460BB9FFF7E5FE94F8A020D4F870
:100E30009C3043F8225094F8A030013384F8A0305D
:100E400038BDFFF7EABF0000154B10B503F168028B
:100E500003600446803342608360FFF79BFED4F852
:100E6000A40008B11CF042FCD4F89C0008B11CF0AE
:100E70003DFC04F5987000F0BBF804F58270FFF7B4
:100E800017FD04F1D800FFF713FD04F1B400FFF7DC
:100E90000FFD04F1100000F0FFFD204610BD00BF63
:100EA000ECC0040010B50446FFF7CEFF20461BF04F
:100EB000E5FC204610BDB430FFF7EBBC07B502AB34
:100EC000022223F8021DD8301946FFF706FD03B0B1
:100ED0005DF804FB2DE9F843354BDFF8E890DFF8C7
:100EE000E88003F108020446026000F1100703F1F4
:100EF00070028833002542608360384601F004FAAE
:100F000004F1B406C4F88850C4F88C50C4F890506A
:100F100084F89450C4F89850C4F89C5084F8A050B9
:100F2000C4F8A45084F8A850224904F1AC0000F0A1
:100F30009BF81323022220493046FFF7E3FC0223EB
:100F40001A461E4904F1D800FFF7DCFC494604F1BB
:100F5000FC0000F089F804232022414604F5827049
:100F6000FFF7D0FC494604F5947000F075F8202294
:100F7000414604F5987000F043F8214604F5AE7040
:100F8000FFF765FC10222946E76004F5B4701CF0F9
:100F9000EAFB0B493046FFF77CFC29462046FFF769
:100FA0008DFFE0682146FFF721FD2046BDE8F8836C
:100FB000E4C00400C0C00400C5C00400CAC00400EE
:100FC000D9C00400CFC00400D4C0040010B504464A
:100FD000FFF7FAFB024A137801331370204610BD65
:100FE00045610020014B1878704700BF4561002023
:100FF000704710B504461BF041FC204610BD0000B0
:1010000038B504461546043042F60302FFF7DEFF0A
:10101000054B23600023A572E372A36284F822309B
:101020006362204638BD00BF94C1040070B5044619
:10103000C3720D460C3011461A461CF06EFB01239C
:1010400084F82230A36A23B121462846BDE87040C7
:10105000184770BD4162704710B54FF420520446E6
:10106000FFF7B4FF204610BD10B54FF420520446E0
:10107000FFF7C6FC204610BDF7B5044600232160EB
:10108000037508460E468DF804308DF805308DF84E
:1010900006301DF0FBF8451E002D1ADB277D0F2FB3
:1010A00017D8735D2D2B01D1013510E07219002185
:1010B00012F8012C8DF8042001A810228DF80530BB
:1010C0001DF00EFA27443871237D01332375023D4C
:1010D000E2E7204603B0F0BD04307047007D704762
:1010E00071DF704772DF704773DF704775DF7047DD
:1010F00076DF704777DF704778DF70477ADF7047B9
:101100007CDF70477EDF70477FDF704786DF704788
:1011100090DF704792DF704796DF704798DF704727
:1011200099DF7047A0DF7047A2DF7047A3DF7047E9
:10113000A4DF7047A6DF7047A9DF704760DF704704
:1011400061DF704762DF704763DF704753DF7047CE
:1011500010DF704711DF704790F85C00003018BF57
:101160000120704770B590F86D600023B34214DA27
:101170001A01056FAC18AA588A420CD1E38973B1E1
:10118000227B02F0020202F0FF0342B190F87400E9
:1011900080F0010070BD0133E8E7002070BD184603
:1011A00070BD70B590F86D600023B3421ADA1A0171
:1011B000056FAC18AA588A4212D1E189A1B1227BED
:1011C00002F0020202F0FF0382B1012380F87430C2
:1011D0000022008FFFF7A0FFB0FA80F0400970BD39
:1011E0000133E2E7002070BD084670BD184670BDAF
:1011F00070B590F86D600023B3421CDA1A01056FD8
:10120000AC18AA588A4214D1E389B3B1227B1307E0
:1012100004D590F8740080F0010070BD02F0040263
:1012200002F0FF034AB190F85C00003018BF0120C3
:1012300070BD0133E0E7002070BD184670BDF0B509
:1012400090F86DE085B0002474452FDA2501076F12
:101250007E197D598D4227D1F4894CB3357B15F029
:101260000C0127D090F85C1021B315F0080F14BFC3
:1012700001250225ADF80A300139012380F85C1000
:101280008DF8045080F87430002501A9008F8DF886
:101290000550ADF80640ADF808500392FFF73EFF49
:1012A000B0FA80F0400906E00134CDE7002002E00A
:1012B000204600E0084605B0F0BD70B590F86D60BE
:1012C0000023B34210DA1A01056FAC18AA588A42FB
:1012D00008D1E08948B1237B13F0300F14BF0120FF
:1012E000002070BD0133ECE7002070BD7FB590F8A1
:1012F0006D600023B3422EDA1A01056FAC18AA58AC
:101300008A4226D1E28942B3217B11F0300326D0F4
:10131000012311F0100F14BF194602211A44ADF831
:101320000210ADF80620002102228DF80510ADF85C
:101330000810ADF80A2080F874306A4401A9008FC3
:101340008DF804300392FFF7E9FEB0FA80F040090F
:1013500006E00133CEE7002002E0104600E0184628
:1013600004B070BD03681B6C18477FB590F86D60C2
:101370000023B3422ADA1A01056FAC18AA588A4230
:1013800022D1E28922B3237B13F030034FF0000116
:1013900020D001231A44ADF806200222ADF8021035
:1013A0008DF80510ADF80810ADF80A2080F87430FB
:1013B0006A4401A9008F8DF804300392FFF7AEFE56
:1013C000B0FA80F0400906E00133D2E7002002E0E5
:1013D000104600E0184604B070BD11F1270F08B5A3
:1013E00014DB11F11D0F14DB11F1130F14DB11F1DC
:1013F0000F0F14DB11F10B0F14DBCA1D15DBCB1C17
:1014000016DB0029D4BF0020042013E06FF0270072
:1014100010E06FF01D000DE06FF013000AE06FF0B8
:101420000F0007E06FF00B0004E06FF0070001E031
:101430006FF00300FFF75EFEB0FA80F0400908BDD0
:101440001321008FFFF754BE07B501466846FFF72A
:1014500047FE086920B103680DF10102DB69984776
:1014600003B05DF804FB000013B5044602A8002396
:1014700040F8043DFFF76AFE01981BF099FB084B0A
:1014800000221BF0FBFB1BF0DBFE236933B11A6863
:1014900000EE100A126A21461846904702B010BDAD
:1014A0000000D03F704710B5044686B000211822D6
:1014B00068461CF058F9A37A002B14BF00230323BD
:1014C0008DF80030A38868460A221B0193FBF2F3D3
:1014D000ADF81030FFF708FE06B010BD2DE9F0435F
:1014E000054690F85D008FB00C4600231426834219
:1014F0005DDA06FB03F2296E8F188A58A24207D1E3
:101500002046FFF723FAC30751D57B6813B94EE095
:101510000133ECE795F833600DF11808324605F118
:10152000140140461CF0F9F8236820461B699847CF
:1015300004300644F6B21F2E39D87868FFF747F911
:1015400001466846FFF798FD236895F833701B69DC
:10155000204698470EAB1F44033007F8200C95F83F
:1015600033703B441622684603F81F2CFFF7B4FD86
:101570000237038828F80730236895F83370DB6852
:1015800020469847236881461B69204698470437C0
:1015900047440246494638461CF0BFF800231A4625
:1015A00031464046FFF79EFD6C63012000E00020BD
:1015B0000FB0BDE8F0832DE9F047D4B04FF48E733F
:1015C00004460DF10A010DA8ADF80A30FFF7B8FD89
:1015D0000346002840F04482BDF83420302A00F051
:1015E0003C8111D8112A5CD004D8012A21D0102ABC
:1015F00027D035E2142A00F0C780192A00F0D080E5
:10160000132A40F02D829BE0382A00F0DA8106D8B8
:10161000322A00F06481362A00F0BA8120E2502A92
:1016200000F0D180522A00F01281392A40F018824D
:10163000ECE194F85C209DF83C30134484F85C3075
:101640000EE2BDF83800208705A9FFF77BFD206971
:101650009DF8143084F85C3028B103680DF13D0228
:101660001B6821469847E288052A12D92389B3F5D9
:10167000486F0ED8ADF816300023ADF8183005A924
:101680004FF4C873208FADF81420ADF81A30FFF76F
:101690002DFD94F86430002B00F0E281002201213E
:1016A00009E14FF6FF72228784F85C0005464FF08F
:1016B0001409804694F85D309D4216DA276E09FBC6
:1016C00005F6BB19B85983F8108083F81180FFF72D
:1016D0003FF940B1206930B10368BA59D3F814A07A
:1016E00021460023D0470135E4E7206918B103689B
:1016F00021465B68984700230C20194694F8642023
:10170000934202DB0023184605E0A26E00FB032291
:1017100001339160F2E794F86D20934208DA216F6B
:101720001A01114401330873216F0A44D081F2E792
:10173000002384F87430236820469B6998478FE122
:10174000E068002800F08681FFF749F8002840F0A3
:101750008181012303228DF80F3062F306138DF887
:101760000C3007238DF80D30102300218DF80E303A
:10177000A36D05938DF8101009910A910B910691B4
:10178000079105AB03AA68E1A16DBDF84420488A22
:10179000904218BF1946208F1A46FFF7B7FC5FE149
:1017A0009DF83C20002A40F05B81E06820B11C23BA
:1017B00004F13C01FFF726F82069002800F0508171
:1017C00003689B68E1E0BDF83A8006464FF01409D3
:1017D00094F85D309E4280F24381216E09FB06F34E
:1017E000CF183A8942450CD12069002800F0388191
:1017F00003689DF8442000921D693A680DF1460384
:1018000023E1BA89424520D19DF847009DF8462042
:1018100042EA002295B202F001023A74C5F3400296
:101820007A7415F00305C85818BF0125FFF790F822
:10183000A8420AD02069002800F0128103683A68A3
:101840005E6921462B46B0470AE10136C0E70246F1
:101850000146208FFFF770FC02E1BDF83A2072BB11
:10186000BDF840500DA913460C26AB421CDA94F883
:1018700064700020B84214DAA26E91F810C006FB22
:10188000002292F806E0F44509D1B1F80EC0B2F892
:1018900004E0F44503D1D1F81200906001E001307A
:1018A000E8E701330831E0E70DAB03EBC5050022A3
:1018B000A989013189B2208FFFF72AFCD0E094F882
:1018C00064200C20934280F2CB80A16E00FB0311B8
:1018D0000D8915B14D89002D4BD10133F2E7BDF8CB
:1018E0003A2094F86C30002A36D1A66E03EB4303FD
:1018F00006EB83030A259B6805930DAB9A8905FBCC
:101900000235AB4223D0002194F86D20914219DAC0
:10191000226F94F86C0002EB011200EB400056F8C5
:101920002070506887420BD11F7C907A874207D184
:101930001089DF89874201BF987C1073D88AD081D3
:101940000131E1E7DA8AADF814200A33D9E705A9B5
:10195000208FFFF7DFFB83E001330C2294F8640053
:101960005A4383420CDAA16E11440D892DB14D8981
:101970001DB184F86C300831EAE701330C32F0E72E
:10198000206900286CD00368DB682146984767E02F
:10199000BDF83A1084F8740040F20512914201D16A
:1019A000E268CAB9BDF8401094F86D000023834284
:1019B00056DA226F02EB0312D5898D423BD00133F8
:1019C000F5E7BDF83A1084F8740040F20512914230
:1019D00046D1E268002A43D01A0E8DF8183042F042
:1019E0000102DBB28DF8172043F00103032262F3FA
:1019F00006138DF8143007238DF8153005A9102330
:101A0000208F8DF81630FFF77DFB29E09DF84230DE
:101A1000BDF84050022B03D12946208FFFF780FBF1
:101A200094F86D1000238B421ADA226F02EB031236
:101A3000D089A8420CD1206990B19DF84410036868
:101A4000009112689D690DF146032146A84707E001
:101A50000133E8E700231A468521208FFFF754FB66
:101A600054B0BDE8F08710B50446FFF773FB206F54
:101A700008B11BF03BFEA06E08B11BF037FE206ED4
:101A800008B11BF033FE002384F85D3084F8643025
:101A900084F86D3010BD000010B5054B036004469E
:101AA000FFF7E1FF2046FEF78CFF204610BD00BF88
:101AB000A8C1040010B50446FFF7EEFF20461AF057
:101AC000DDFE204610BD07B51288ADF80020ADF848
:101AD00002106A4601464FF6FF700193FFF728FB9C
:101AE00003B05DF804FB00002DE9F04FEDB09A461D
:101AF0009DF8E8310193A04B769E9DF8E081054664
:101B0000186808900F4608A800211446FFF720FB2C
:101B10009A4B0993142200210DA81BF024FE0A23DE
:101B200009A9ADF834300DA801238DF840308DF8A7
:101B30003C30FFF703FB2822ADF82C205022ADF8F3
:101B40002E204FF000094FF4C8720BA8ADF83220D8
:101B5000ADF83090FFF7D2FA4846FFF7CBFA6B7535
:101B600006230222AB7503232A7585F833301FB391
:101B700014B31444B9451FDA95F8330014F8023C45
:101B80002A1801331375023014F8013C5375C0B2A2
:101B900085F83300284414F8022C214614301BF039
:101BA000BCFD14F8023C95F83320134485F833301B
:101BB00009F101091634DDE724AFBAF1000F1CD09A
:101BC000EEB14FF0000902364B46D14518DA16F84F
:101BD00002BC16F8011C0BF10102FA549C1CFA1805
:101BE000E4B25170381931465A465C441BF095FDF9
:101BF00009F10109E3B21636E7E7534600E0334640
:101C00003A4695F8331005F11400FFF76BFA0020FF
:101C1000FFF772FA002442F6030644450DDA779B7B
:101C200053F82400FEF7D5FDB04202BF95F85D30B1
:101C3000013385F85D300134EFE795F85D00033836
:101C4000C0B285F85D0000EB800080001BF046FD0F
:101C500000262866ADF814600296B146464580F22B
:101C6000BE81779B53F826402046FEF7B0FD014623
:101C700017A8FFF701FA17A8FFF72EFA074617A8CB
:101C8000FFF72CFA022809D17A783B7843EA02233D
:101C9000ADF8283001238DF82A301CE03B460DF1C9
:101CA000B00E07F1100C18685968724603C2083369
:101CB00063459646F7D17A7B3B7B43EA0223ADF836
:101CC00028300DF12A0100232CA88DF8BD308DF8A5
:101CD000BC30FFF739FA2046FEF77BFDB0F5205FF8
:101CE000204611D1FEF773FD25491CF0BDFA0028EE
:101CF00000F073812046FEF76AFD22491CF0B4FA19
:101D0000002800F06A8131E2FEF763FD42F603032A
:101D1000984240F0358104B1043C271D3846FEF757
:101D200056FD19491CF0A0FAB8B99DF8B03001224F
:101D300062F3030362F307138DF8B0302368204683
:101D4000DB689847236807461B6920469847394651
:101D500082B22CA8FFF7D4F93FE13846FEF737FDF1
:101D60000A491CF081FA98B923682046DB68984735
:101D70000088FFF7C1F930E19CC1040080200020F9
:101D8000C0C00400CFC00400C5C00400CAC0040025
:101D90003846FEF71CFDC1491CF066FA002800F029
:101DA0001C812046FEF7D2FD236882461B6920462F
