:020000021000EC
:10C0000000000120D97303000174030003740300CE
:10C0100005740300077403000974030000000000A6
:10C020000000000000000000000000000B7403008E
:10C030000D740300000000000F740300117403006E
:10C040001374030013740300D57803001374030002
:10C0500021E0010013740300ADE301001374030039
:10C0600013740300137403001374030013740300A8
:10C070001374030013740300137403001374030098
:10C0800013740300B57C03001374030013740300DE
:10C090001374030013740300137403001374030078
:10C0A0001374030013740300137403001374030068
:10C0B000137403001374030000000000000000006C
:10C0C0001374030013740300137403001374030048
:10C0D0003909020013740300137403000000000008
:10C0E0000000000000000000000000000000000050
:10C0F0000000000000000000000000000000000040
:10C10000000000000000000000000000000000002F
:10C11000000000000000000000000000000000001F
:10C40000044B05481B1A062B02D9044B03B11847ED
:10C41000704700BFFF220020FC2200200000000027
:10C4200005490648091A891001EBD171491002D05B
:10C43000034B03B118477047FC220020FC22002068
:10C440000000000010B5064C237843B9FFF7D8FF71
:10C45000044B13B10448AFF300800123237010BDD7
:10C46000FC22002000000000D47E050008B5084B27
:10C470001BB108490848AFF300800848036813B9A6
:10C48000BDE80840CCE7064B002BF9D09847F7E70A
:10C490000000000000230020D47E0500F8220020C8
:10C4A00000000000154B002B08BF134B9D46A3F561
:10C4B000803A00218B460F461348144A121A1CF08A
:10C4C00058FC0F4B002B00D098470E4B002B00D090
:10C4D00098470020002104000D000D48002802D0DC
:10C4E0000C48AFF300801CF0E9FB200029001BF092
:10C4F0001FFC1CF0CFFB00BF000008000000012063
:10C500000000000000000000FC2200200CAA002017
:10C51000000000000000000008B54FF4FA701BF0A6
:10C52000BBFB01F023FE88B14FF080430122C3F82A
:10C530001C25BFF34F8F2149214BCA6802F4E062EA
:10C540001343CB60BFF34F8F00BFFDE704F0E6FB62
:10C5500004F0D4F904F01AFA00F08EFF01F0FAF9B1
:10C5600001F020FC01F0E0FD00F0D2F901F0BAF991
:10C5700003F0C0FB032000F08FF900F013FB01F083
:10C580005DFB04F004FA04F0F7FA04F005F903F097
:10C590004BFB03F0B7FE01F02DFB00F017F900F0A4
:10C5A000BFFB01F049FE64201BF076FB032000F086
:10C5B00073F9BDE8084003F039BB00BF00ED00E0AF
:10C5C0000400FA0510B586B000F0A4FB01F0CEFD22
:10C5D00008B904F0A7FB04F0E3F8044610B104F036
:10C5E00021F906E004F056F9204603F017FC00F0AC
:10C5F00041FB04F07BF9D0B104F0D2F828B100F08F
:10C6000045F810B1082004F021F9684604F0CEF98D
:10C61000039A094B32B91A7832B901221A7000F024
:10C62000AEF801E000221A70049801F03DFB06B05C
:10C63000BDE8104002F012B81823002007B504230B
:10C640000DEB03021E21182001F0BEFC019803B07F
:10C650005DF804FB10B50C4C06232246122118206D
:10C6600001F0B2FC2388B4F9021010221BB291FB36
:10C67000F2F193FBF2F321806380B4F9043093FB71
:10C68000F2F3A38010BD00BF1C23002010B5114C95
:10C69000FFF7E0FFB4F90030B3F5A87F01DB00201D
:10C6A00010BDB4F90430002BF9DA04F079F8B4F9CC
:10C6B000023028B9002BF2DD074B0020186010BDB6
:10C6C000002BF9DA04490C6803F1E602A242E6DA2B
:10C6D0000B6010BD1C2300202C23002008B5FFF7A1
:10C6E000B9FF0A4BB3F90220B2F5967F0BDCB3F920
:10C6F0000020B2F5967F06DCB3F904006328CCBFB6
:10C700000020012008BD002008BD00BF1C23002020
:10C7100007B502AA012302F8011D0146182001F005
:10C720002FFC03B05DF804FB2DE9F042064691466C
:10C730001D460024A5421CD9069B03EB640707F0A5
:10C740000F015B20FFF7E4FFC7F307115C20FFF741
:10C75000DFFF2B1B102B09EB040228BF10235E21E7
:10C76000182016B101F030FC01E001F009FC103492
:10C77000E0E7BDE8F082B6217E20FFF7C9BF10B523
:10C7800094B04722002102A81CF0F3FA00217C207B
:10C79000FFF7BEFF4FF4807401201BF07DFA02AA60
:10C7A000009446235E210120FFF7BEFF34238DF85D
:10C7B000433002AA462300945E210020FFF7B4FF15
:10C7C00003217C20FFF7A4FF14B010BD07B50021A2
:10C7D00008201BF085FBFFF7CEFF0A201BF05CFA58
:10C7E00000217C20FFF794FF01201BF055FA002167
:10C7F0005920FFF78DFF00204FF4C0530E4A0090E0
:10C800005E21FFF791FF01215920FFF781FF0A20E8
:10C810001BF042FA04217D20FFF77AFF28214020F7
:10C82000FFF776FFFFF7ABFF03217C2003B05DF835
:10C8300004EBFFF76DBF00BF1893030007B501239A
:10C8400001460DF10702182001F0BEFB9DF807001C
:10C8500003B05DF804FB000038B50546FFF7FAFEAB
:10C86000FFF7ECFE084CA0602720FFF7E7FF2073DE
:10C870002220FFF7E3FF1730A07194E80F0085E84E
:10C880000F00284638BD00BF1C230020014B18684C
:10C89000704700BF3023002008B550B11B4B186013
:10C8A0000138062831D8DFE800F0061012181A20E7
:10C8B0002200012100E000210E201BF033FB0121AA
:10C8C00016201BF02FFB01211AE0012100E00021BE
:10C8D0000E201BF027FB0021F2E7012100E00021E0
:10C8E0000E201BF01FFB012106E0012100E00021CA
:10C8F0000E201BF017FB002116201BF013FB00215C
:10C900001720BDE808401BF00DBB08BD30230020F8
:10C9100008B501210E201BF0E3FA012116201BF0BF
:10C92000DFFA172001211BF0DBFA0020BDE80840E8
:10C93000FFF7B2BF014B1868FFF7AEBF30230020EE
:10C94000DFED7B7AB4EEE70AF1EE10FA82B080F206
:10C95000E9809FED787AB4EEC70AF1EE10FA0DDDAA
:10C9600037EEC00A0D20FDEEC07ACDED017ABDF99B
:10C97000043093FBF0F0C0F16300D6E0DFED6E7A97
:10C98000B4EEE70AF1EE10FA0DDD37EE400A0920A9
:10C99000FDEEC07ACDED017ABDF9043093FBF0F0E5
:10C9A000C0F15A00C1E09FED657AB4EEC70AF1EE1E
:10C9B00010FA0DDD37EEC00A0720FDEEC07ACDED8E
:10C9C000017ABDF9043093FBF0F0C0F15000ACE007
:10C9D000DFED5B7AB4EEE70AF1EE10FA0DDD37EE2B
:10C9E000400A0620FDEEC07ACDED017ABDF9043093
:10C9F00093FBF0F0C0F1460097E09FED527AB4EE61
:10CA0000C70AF1EE10FA0DDD37EEC00A0420FDEE84
:10CA1000C07ACDED017ABDF9043093FBF0F0C0F19E
:10CA20003C0082E0DFED487AB4EEE70AF1EE10FA5E
:10CA30000DDD37EE400A0320FDEEC07ACDED017A20
:10CA4000BDF9043093FBF0F0C0F132006DE0DFED92
:10CA50003F6AB4EEE60AF1EE10FA0DDD37EEC00AD9
:10CA60000220FDEEC07ACDED017ABDF9043093FBD2
:10CA7000F0F0C0F1280058E0DFED357AB4EEE70AB7
:10CA8000F1EE10FAB0EE677A0DDD36EEC00A022044
:10CA9000FDEEC07ACDED017ABDF9043093FBF0F0E4
:10CAA000C0F11E0041E0DFED2B7AB4EEE70AF1EEB3
:10CAB00010FA0DDD37EE400A0320FDEEC07ACDED11
:10CAC000017ABDF9043093FBF0F0C0F114002CE0C2
:10CAD0009FED217AB4EEC70AF1EE10FA0DDD37EEC4
:10CAE000C00A0620FDEEC07ACDED017ABDF9043012
:10CAF00093FBF0F0C0F10A0017E0DFED187AB4EE16
:10CB0000E70AF1EE10FA0FDD37EE400A1220FDEED3
:10CB1000C07ACDED017ABDF9043093FBF0F0C0F19D
:10CB2000050002E0642000E0002002B0704700BF72
:10CB30000088814500A07A450000754500A0704539
:10CB400000D06C4500C069450070674500C0654570
:10CB5000000064450090614500705F4500A05945A4
:10CB60001F201BF019B9000007B5FFF7F9FF41F2CC
:10CB7000680300934FF42E7240F6B8334FF4F87107
:10CB80001AF0BEFE1BF044FB0022054B1BF0D0FC4C
:10CB90001BF086FE00EE100A03B05DF804FB00BF38
:10CBA00000408F4008B500210C201BF099F90021AE
:10CBB00013201BF095F9012118201BF091F9012198
:10CBC00018201BF0AFF9FFF7CFFFFFF7B9FE014BBD
:10CBD000186008BD38230020F7B5FFF7C1FF41F208
:10CBE000680300934FF42E7240F6B8334FF4F87197
:10CBF000144C154D154F164E1AF082FE236818443A
:10CC00002B68206001332B601BF02EF83B68C01AA4
:10CC100042F21073984211D91BF026F82A68236853
:10CC200093FBF2F300EE103AB8EEC00A3860FFF75B
:10CC300087FE002330602B60236000E0306803B083
:10CC4000F0BD00BF442300203C23002088200020AA
:10CC50003823002008B513201BF076F9003018BFE8
:10CC6000012008BD08B50C201BF06EF9003018BF7C
:10CC7000012008BD1FB51AF0F7FF144B1B68C01A3E
:10CC8000134B1B6898421DD9FFF7A6FF0E280FDC37
:10CC9000104B1A78B2B901220F491A7001A81AF084
:10CCA0008AFE01A803F04CFB01A81AF042FE09E03D
:10CCB000FFF792FF042802DC00F0F4FB02E0054BD2
:10CCC00000221A7005B05DF804FB00BF3423002079
:10CCD000842000204023002018AB030008B5022068
:10CCE00003F0B4FD014B01221A7008BD302500206D
:10CCF00008B5032003F0AAFD014B00221A7008BDFD
:10CD00003025002010B58B6804461AF067FF2046D6
:10CD100010BD0000014804F0F1B900BF8C230020D1
:10CD200038B5204C204D2046294604F0F2F940F257
:10CD3000911220464FF4C87104F00BFA20464FF4CC
:10CD4000FA7104F003FA2946184D204604F06BFBF3
:10CD5000284603F0F4FF0146204604F0D7F929469F
:10CD60002046134D04F025FB2046124904F021FB18
:10CD7000291D204604F01DFB28460F4A002104F01F
:10CD8000AEF820460D4A002104F0E6F920460C4A90
:10CD9000012104F0E1F9204604F001FABDE8384031
:10CDA000FFF7B8BF8C230020AFAB030004250020A1
:10CDB000502300201025002085D30100DDCC010088
:10CDC000F1CC0100014B1878704700BF30250020DE
:10CDD000F8B5214D214C224E224FFF231A46194609
:10CDE000284604F02FFB22461F4928461F4D1BF002
:10CDF00033FF1F491F4804F0EFFB142310221E4984
:10CE0000284604F037F828461C4D224631461BF0D0
:10CE100023FF142304221A49284604F02BF828463D
:10CE2000184D224631461BF017FF174E394628464B
:10CE30001AF0C1FD2846154D224631461BF00CFF65
:10CE4000394628461AF0B7FD224631462846BDE845
:10CE5000F8401BF001BF00BF8C2300208020002081
:10CE6000210E020037AB0300B91302000C2500208D
:10CE700026AB0300042500202BAB03005023002029
:10CE800030AB03007423002033790300802300209B
:10CE900010B586B00146044603A81AF0CAFD16492B
:10CEA00003A81AF056FE014620461AF0B3FD03A867
:10CEB0001AF03FFDA368EBB1142300222146684617
:10CEC0001AF08CFE002168461AF068FE01460B48F5
:10CED00003F097FF1422214603A8FFF713FF03A9CD
:10CEE00020461AF0B0FD03A81AF023FD68461AF098
:10CEF00020FDDFE706B010BD35AB03000C25002098
:10CF000030B58FB001460823002204460AA81AF063
:10CF100065FEAD490AA81AF02EFE05460AA81AF0C9
:10CF200008FD15B100F0B9FAEFE1A84920461AF062
:10CF300022FEF0B10AA8FFF78FFCA54904A81AF059
:10CF40003AFD0A220C9901A81AF096FD01A904A83D
:10CF50001AF0F3FD014607A81AF06BFD07A8FFF7CA
:10CF600097FF07A81AF0E5FC01A81AF0E2FC04A854
:10CF700021E0984920461AF0FEFDF8B1964907A82D
:10CF80001AF019FDFFF728FE0A22014604A81AF03C
:10CF900085FD04A907A81AF0D0FD01460AA81AF0D9
:10CFA00048FD0AA8FFF774FF0AA81AF0C2FC04A8FB
:10CFB0001AF0BFFC07A81AF0BCFCA6E1874920467E
:10CFC0001AF0D9FD024658B1854907A81AF0F3FCBA
:10CFD00000F056FE0A22014604A81AF071FDD8E7B7
:10CFE000082321460AA81AF0F9FD7E490AA81AF07A
:10CFF000C2FD05460AA81AF09CFC95B17A490AA818
:10D000001AF0D9FC0AA8FFF743FF0AA81AF091FC0E
:10D010000AA808222146FFF775FE0AA803F090F936
:10D0200070E1724920461AF0A6FD08B1704906E089
:10D03000704920461AF09FFD024638B16E490AA891
:10D040001AF0B9FC0AA8FFF723FF5BE10C23214685
:10D050000AA81AF0C3FD69490AA81AF08CFD054612
:10D060000AA81AF066FC002D33D0214601A80C2234
:10D07000FFF748FE624901A81AF07DFD08B10120C2
:10D0800007E0604901A81AF076FD08B1032000E02E
:10D090000720FFF701FC5C4907A81AF08CFC0C2262
:10D0A000214604A8FFF72EFE04A907A81AF045FDA3
:10D0B00001460AA81AF0BDFC0AA8FFF7E9FE0AA873
:10D0C0001AF037FC04A81AF034FC07A81AF031FC57
:10D0D00045E02A460A2321460AA81AF07FFD4B495B
:10D0E0000AA81AF048FD05460AA81AF022FC002DED
:10D0F00037D0214601A80A22FFF704FE444901A8BF
:10D100001AF039FD08B1322008E0424901A81AF0AE
:10D1100032FD08B1C82001E04FF4AF7001F05EF8B5
:10D120003D4907A81AF047FC0A22214604A8FFF748
:10D13000E9FD04A907A81AF000FD01460AA81AF0A3
:10D1400078FC0AA8FFF7A4FE0AA81AF0F2FB04A8CC
:10D150001AF0EFFB07A81AF0ECFB01F02DF801A87C
:10D16000D1E02A46062321460AA81AF037FD2B49AA
:10D170000AA81AF000FD05460AA81AF0DAFB5DB10C
:10D18000062221460AA8FFF7BDFD0AA803F02EFCDF
:10D190000AA81AF0CEFB0EE00523002221460AA8B9
:10D1A0001AF01CFD1E490AA81AF0E5FC05460AA85B
:10D1B0001AF0BFFBC5B31B4907A81AF0FCFB04A873
:10D1C00003F074FCE5E600BF38AB030041AB03009D
:10D1D00049AB030052AB03005AAB030063AB03003F
:10D1E0006BAB030074AB03007DAB030088AB0300A3
:10D1F0008FAB03009FAB0300A7AB0300BBAB0300E7
:10D20000C8AB0300CCAB0300D0AB0300DDAB030025
:10D21000B9AB03002EAB0300E8AB0300F3AB030094
:10D2200001AC0300FAAB03002A46082321460AA8F2
:10D230001AF0D4FC36490AA81AF09DFC05460AA843
:10D240001AF077FB45B10AA808222146FFF75AFDDC
:10D250000AA803F0CFF855E02A46082321460AA879
:10D260001AF0BCFC2B490AA81AF085FC05460AA84E
:10D270001AF05FFB45B10AA808222146FFF742FDDC
:10D280000AA803F0E1F83DE02A46082321460AA84F
:10D290001AF0A4FC20490AA81AF06DFC05460AA859
:10D2A0001AF047FB45B10AA808222146FFF72AFDDC
:10D2B0000AA803F019F925E02A46082321460AA8FE
:10D2C0001AF08CFC15490AA81AF055FC05460AA864
:10D2D0001AF02FFB75B92A46082321460AA81AF02E
:10D2E0007DFC0F490AA81AF046FC05460AA81AF068
:10D2F00020FB55B10AA808222146FFF703FD0AA822
:10D3000003F0CAF80AA81AF014FB0FB030BD00BF32
:10D3100007AC030010AC030019AC030022AC0300FF
:10D320002BAC03007FB5144905461AF024FC0446D3
:10D3300050B1124901A81AF03EFB01A8FFF7A8FD61
:10D3400001A81AF0F6FA15E002460723294601A8BB
:10D350001AF044FC0A4901A81AF00DFC064601A87F
:10D360001AF0E7FA1EB1204600F087F802E02846DE
:10D37000FFF7C6FD04B070BD34AC03003CAC030045
:10D3800047AC030070B50B682B4C1B692B4E8AB061
:10D3900008460D469847236830601844162200213D
:10D3A000206004A81BF0E5FC2B682846DB68984742
:10D3B0003268014604A81BF0D1FC214901A81AF0EB
:10D3C00038FB04A901A81AF0C4FB01461C481AF056
:10D3D00021FB01A81AF0ADFA2168194802391AF0A8
:10D3E000DDFB03780D2B25D12168154801391AF092
:10D3F000D5FB03780A2B1DD1236811490022023B7B
:10D4000001A81AF0EBFB01A90E481AF01CFB01A8B9
:10D410001AF08FFA0C490A481AF063FB00230949F5
:10D42000236001A81AF005FB01A8FFF77BFF01A804
:10D430001AF07FFA0AB070BD482300204C23002068
:10D44000802300207423002037AB0300BFF34F8FED
:10D450000549064BCA6802F4E0621343CB60BFF390
:10D460004F8F00BFFDE700BF00ED00E00400FA05AC
:10D470003CDF704744DF7047704708B5044603F04F
:10D4800095F92CB14FF080430122C3F81C2502E02E
:10D490000120FFF7EFFFFFF7D9FF08B503F086F98A
:10D4A000FFF7D4FF10B5012003F0A4FBFFF763F9E9
:10D4B00001F006F903F07AF901210F204FF0A044A2
:10D4C0001AF00EFD01210F201AF02CFD00210D2075
:10D4D0001AF006FDD4F8343723F44033C4F8343757
:10D4E000D4F8343743F40033C4F834370021132020
:10D4F0001AF0F6FCD4F84C3723F44033C4F84C3718
:10D50000D4F84C3743F44033C4F84C37BDE81040EE
:10D51000FFF7AEBF30B587B00D4602F027FE60B111
:10D5200003F0A2FB684603F0D3FB9DF80240A21E65
:10D530005442544103F084FB0CE003F081FB40B102
:10D54000684603F0C5FB9DF80040631F5C425C41E8
:10D5500000E00446019B2B80029BAC7300206B8093
:10D5600007B030BD28200DF0A1B913B502AC0021E1
:10D5700004F8010D12201AF0D5FC2046012100F01C
:10D5800059FA012112201AF0CDFC02B010BDF7B5F6
:10D59000054617462A200C461E46FFF7E6FF2B0AD3
:10D5A0007A1E04218DF80430EBB215440DEB010016
:10D5B0001A442D0A8DF805308DF807208DF8065095
:10D5C00000F038FA2B20FFF7D0FF230A8DF8043043
:10D5D000731EE2B204211C440DEB01001344240A23
:10D5E0008DF805208DF807308DF8064000F022FAFE
:10D5F0002C20FFF7BAFF03B0F0BD08B5012000F002
:10D60000DFF900211920BDE808401AF08BBC08B5ED
:10D61000192001211AF086FC0020BDE8084000F026
:10D62000CFB92DE9F041B1F904308846B1F90010C5
:10D63000B8F90240591AB8F906304D1C191B4C1C98
:10D6400006461746FFF7D9FF23462A46B8F90210C7
:10D65000B8F90000FFF79BFF04FB05F138464900CD
:10D6600000F0E8F9FFF7D3FF3046BDE8F0410DF0D8
:10D6700067B810B50446FFF7C0FF24B12920FFF7B3
:10D6800074FF112003E01020FFF76FFF2820FFF741
:10D690006CFFBDE81040FFF7BABF2DE9F04F012144
:10D6A0008BB019201AF01CFC012112201AF018FC72
:10D6B00001211A201AF014FC012109201AF010FC93
:10D6C000012119201AF02EFC012112201AF02AFC47
:10D6D00001211A201AF026FC14201AF0DDFA00218C
:10D6E0001A201AF01FFC64201AF0D6FA01211A2021
:10D6F0000AAC1AF017FC64201AF0CEFA0026FFF7E5
:10D700007CFF3620FFF731FF04F81C6D0121204615
:10D7100000F090F93A20FFF728FF05250121204667
:10D720008DF80C5000F086F9B220FFF71EFF0C2791
:10D730003323294620468DF80F308DF810308DF8B0
:10D740000E608DF80C708DF80D7000F073F9B72035
:10D75000FFF70BFF3523012120468DF80C3000F038
:10D7600069F9BB20FFF701FF1923012120468DF83D
:10D770000C3000F05FF9C020FFF7F7FE4FF02C0AE5
:10D780000121204601258DF80CA000F053F9C2209C
:10D79000FFF7EBFE294620468DF80C5000F04AF9C1
:10D7A000C320FFF7E2FE1223294620468DF80C30F5
:10D7B00000F040F9C420FFF7D8FE4FF020082946BA
:10D7C00020468DF80C8000F035F9C620FFF7CDFE1D
:10D7D0000F23294620468DF80C3000F02BF9D0207D
:10D7E000FFF7C3FEA4238DF80C300221A1232046AD
:10D7F0008DF80D3000F01EF9E020FFF7B6FE2B206B
:10D800008DF8110054200D218DF813004C200423B5
:10D810008DF80E108DF814008DF8161018200B21BD
:10D82000D02211251F268DF80D3000934FF0130BD9
:10D830004FF023034FF03F098DF815008DF81710B6
:10D8400020460E218DF80C2001928DF819308DF8AC
:10D850000F508DF810B08DF812908DF8186000F010
:10D86000E9F8E120FFF781FE009B8DF80D3044239D
:10D870008DF8133051238DF814302F23019A8DF831
:10D8800015300E214FF0230320468DF80C208DF823
:10D8900019308DF80E708DF80F508DF810B08DF88E
:10D8A00011A08DF812908DF816608DF817608DF824
:10D8B000188000F0BFF82120FFF757FE2846FFF739
:10D8C00054FE78201AF0E8F92920FFF74EFE28468A
:10D8D000FFF74BFE2920FFF748FEFFF798FE0BB03D
:10D8E000BDE8F08F10B5174C92B0FFF7D6FE06F0EA
:10D8F000CFFA002214494FF4E15320460CF06BFE9E
:10D9000008A80CF055FEF023ADF82030ADF8223019
:10D9100008A80E4B0B9309940CF06CFE01A80CF0B8
:10D920004BFF01238DF8043001A8094B02930CF042
:10D9300055FF00210A2018F0EDF918F08BF912B00C
:10D9400010BD00BF342500205025002023D6010043
:10D9500015D5010008B5012102201AF0C1FA0121F4
:10D9600003201AF0BDFA002104201AF0B9FA0121AF
:10D9700019201AF0B5FA012102201AF0D3FA012178
:10D9800003201AF0CFFA012119201AF0CBFA0B4B21
:10D990000222C3F808250322C3F80C250422C3F889
:10D9A00010254FF00042C3F82425FF210022C3F8C0
:10D9B0000423C3F8C015C3F8542508BD0030024045
:10D9C000074B08B9194603E00722C3F80025704742
:10D9D000D3F8002512B9C1F80025F9E7704700BF58
:10D9E00000300240D0F808351B0230B543F4403314
:10D9F00002F5A2750D4C43F0010344F82530CB002D
:10DA0000920003F1804303F5F83302F1804202F5FE
:10DA1000C2421430C3F81025C3F81405012303FAD9
:10DA200001F1034BC3F8041530BD00BF0060004096
:10DA300000F001400129F8B505460C4605D1082241
:10DA400011461E48FFF7CEFF0CE01D4B0022C3F825
:10DA5000302503F5C833C3F85025C3F854250822F0
:10DA6000C3F80425154B00210A461846FF26012756
:10DA7000FF2C05EB010EC3F8182198BF0919C3F854
:10DA8000102188BFFF31C3F8202188BFFF3CC3F8B5
:10DA900044E596BFC3F84845C3F848650024C0F87C
:10DAA0003425C0F838250761D3F818E1BEF1000F1E
:10DAB000FAD0C0F81821002CDAD1F8BD00300240AD
:10DAC000006000400129F8B505460C4605D1082242
:10DAD00011461E48FFF786FF0CE01D4B0022C3F8DD
:10DAE000302503F5C833C3F85025C3F85425082260
:10DAF000C3F80425154B00210A461846FF260127C6
:10DB0000FF2C05EB010EC3F8182198BF0919C3F8C3
:10DB1000102188BFFF31C3F8202188BFFF3CC3F824
:10DB20004425C3F84825C3F834E596BFC3F8384503
:10DB3000C3F8386500240761D0F818E1BEF1000F82
:10DB4000FAD0C0F81821002CDAD1F8BD003002401C
:10DB50000060004008B50120FFF732FF00210520DA
:10DB6000BDE808401AF0DEB908B5052001211AF019
:10DB7000D9F90020BDE80840FFF722BF2DE9F041A8
:10DB80000546FFF7E7FF0A201AF086F8174C25B97B
:10DB90002646AB274FF001080CE0B92301212046AF
:10DBA0002370FFF747FF17E07378152B14D0B37875
:10DBB000152B11D02023A370042130230B48E370D0
:10DBC000277084F80180FFF735FF03210748FFF72E
:10DBD00079FF2378152BE7D1FFF7C6FF0035044BFB
:10DBE00018BF01251D70BDE8F08100BF915D0020C8
:10DBF000905D002008B5012105201AF071F905207B
:10DC000001211AF08FF90120BDE80840FFF7B6BFE7
:10DC100010B5044C23781BB918F070FF0123237052
:10DC200010BD00BF9D5D0020034B1A781AB1002281
:10DC30001A7018F065BF70479D5D002008B500217F
:10DC40001E201AF04DF90549054818F03DFF054B17
:10DC500001221A70BDE80840FFF7E6BF81DF01002E
:10DC6000C9DF01009D5D0020034B187818B1FD2825
:10DC70003CBF024B187070479C5D00209A5D0020ED
:10DC8000014B1878704700BF9A5D002008B5044B1F
:10DC90001B781BB118F036FF024B187008BD00BF8F
:10DCA0009D5D00209C5D002010B51F4B1B78002B54
:10DCB00038D01E2828D81D4B23FA00F0C30725D5DD
:10DCC0001B4A13781446DBB91A4A1370FFF7A0FFFA
:10DCD000FFF7CAFF431EDBB2FB2B08D8164A1368B6
:10DCE0000133042B13601DDD0123237010BDFE28BA
:10DCF00018D1114A13680133092B1360F4DC10BDED
:10DD0000BDE81040FFF790BF2D28D9D0094B1C78F3
:10DD100044B901221A70FFF787FF074B1C60044BC0
:10DD20001C7010BD10BD00BF8C2000200180004081
:10DD30009B5D0020995D0020A05D0020014B1878BC
:10DD4000704700BFA65D002010B5134B19784FF047
:10DD5000A04301F5E07240F20C6043F822000F4A44
:10DD6000127802F5E07443F824004FF040234FF09E
:10DD70008060C3F824050620C3F80005C3F8081521
:10DD8000C3F80C25064B10224021C3F8802183F8EC
:10DD900004131A6010BD00BFF05D0020A55D0020D7
:10DDA00000E100E0FFF7D0BFF8B5074616460C4685
:10DDB000B1B12A4D284619F0E5FA4FF04023012170
:10DDC000C3F888751962C3F83455C3F8384519602B
:10DDD000D3F84C2132B9D3F82421002AF8D001E03D
:10DDE0000846F8BD4FF040230022C3F84C21D3F879
:10DDF0005C211AB9D3F82421002AF8D04FF040232F
:10DE00000021C3F85C1116B9D3F824216AB14FF090
:10DE1000402301225A61D3F80421002AFBD04FF09D
:10DE200040230022C3F804210AE00122DA61D3F87A
:10DE30004821002AFBD04FF040230022C3F848219C
:10DE40004FF04023D3F8242112B10022C3F824213B
:10DE5000D3F83C452C64E0B2F8BD00BFA85D0020BB
:10DE600008B5044B1870044819F08CFA034B0122D2
:10DE70001A7008BDF25D0020F45D0020A45D002052
:10DE800070B5324B00221A70314B4FF040241B7892
:10DE9000C4F88835012506462E482562C4F8440595
:10DEA00019F082FAC4F84805A560D4F850311BB9BE
:10DEB000D4F82431002BF8D04FF040230022C3F8CF
:10DEC0005021244819F070FA40B14FF04023D3F8A4
:10DED00060211AB9D3F82421002AF8D04FF040234A
:10DEE0000022C3F860211A4616B9D3F8241169B18B
:10DEF000012353614FF04023D3F80421002AFBD0C3
:10DF00004FF040230022C3F804210AE00122DA6125
:10DF1000D3F84821002AFBD04FF040230022C3F859
:10DF200048214FF04023D3F8240168B10022C3F800
:10DF30002421D3F8C404C3F8C404022804D004285C
:10DF40000CBF0320042070BD70BD00BFA45D002085
:10DF5000F25D0020F45D0020074B1B7810B50446ED
:10DF60004BB1064819F02EFA28B921460348BDE8FE
:10DF7000104019F0FCB910BDA45D0020F45D002034
:10DF8000F8B50D4C0F461E46012315462370FFF7CA
:10DF900067FF3846FFF7E0FF2E44B54204D015F87E
:10DFA000010BFFF7D9FFF8E70120FFF769FF08B978
:10DFB0002070F8BDFF20F8BDA65D0020014819F0D3
:10DFC000E5B900BFA85D00202DE9F843134C0F46CA
:10DFD0004FF0010815461E46814684F80080FFF781
:10DFE0003FFF3846FFF7B8FF4046FFF749FF0746B7
:10DFF00078B9314642464846FFF7D6FE2E44B54230
:10E0000004D0FFF7DBFF05F8010BF8E700232370CE
:10E0100000E0FF273846BDE8F88300BFA65D00207A
:10E020002DE9F0414FF04024D4F864317BB1002356
:10E03000254EC4F86431254B012530461D7019F07A
:10E04000A1F94023C4F83465C4F8383525634FF08E
:10E050004024D4F86831BBB11D4D1C4BDFF87480EF
:10E060000026C4F86861012728461E7088F80070F1
:10E0700019F088F988F800602846C4F8445519F06A
:10E0800093F9C4F8480567634FF04023D3F804219F
:10E090004AB10022C3F804210C4A12781AB1D3F80D
:10E0A0003C25094B1A644FF04023D3F8242142B198
:10E0B0000022C3F82421D3F8D024C3F8D0240122AD
:10E0C0005A61BDE8F08100BFA85D0020F15D00202D
:10E0D000F45D0020A45D002008B5074B074A99694C
:10E0E0001170DA69064B07481A7019F035F90648BD
:10E0F000BDE8084019F030B9EC7C0500A55D0020B2
:10E10000F05D0020A85D0020F45D0020014600B114
:10E1100001211B2019F006BF08B1002100E00121F8
:10E12000102019F0FFBE000008B501211B2019F0D6
:10E13000D7FE0121102019F0D3FE00210D2019F087
:10E14000CFFE01210F2019F0CBFE01210F2019F085
:10E15000E9FE0020FFF7DAFF0020FFF7DDFF024BAA
:10E1600001221A7008BD00BF405E002008B50A4BAE
:10E170001B780BB9FFF7D8FF01210F2019F0B0FE73
:10E1800001210F2019F0CEFE0D2019F0DDFE003028
:10E1900018BF012008BD00BF405E002010B500215F
:10E1A0000446102019F0BEFE19F05EFD014B20441C
:10E1B000186010BD445E002008B50021102019F041
:10E1C000B1FE19F051FD034B1B681844024B186057
:10E1D00008BD00BF90200020445E0020014B186065
:10E1E000704700BF9020002010B5012104461B207D
:10E1F00019F098FE19F038FD014B2044186010BD4D
:10E200003C5E002008B519F02FFD094B1B689842B1
:10E2100002D90020FFF780FF19F026FD054B1B688F
:10E22000984204D90020BDE80840FFF76FBF08BD41
:10E23000445E00203C5E00204C4A38B54C4B4021E7
:10E2400001254FF000402024C2F80803C3F88010D5
:10E25000C3F8801183F806431960C2F87C5129463F
:10E26000C2F804030F2019F03BFE29460F2019F0D5
:10E2700059FE00210D2019F033FE0D2019F064FE27
:10E280003C4B003018BF012018704FF0A0441B78A1
:10E29000002BD4F8343714BF4FF440324FF400321F
:10E2A0001343C4F834370021132019F019FE13204A
:10E2B00019F04AFE304B003018BF012018701B784F
:10E2C000002BD4F84C3714BF4FF440324FF40032D7
:10E2D0001343C4F84C3700210C2019F001FE0C2028
:10E2E00019F032FE254B003018BF012018701B7842
:10E2F000002BD4F8303714BF4FF440324FF40032C3
:10E300001343C4F8303700211C2019F0E9FD1C200C
:10E3100019F01AFE1A4B003018BF012018701B7834
:10E32000002BD4F8703714BF4FF440324FF4003252
:10E330001343C4F870370021082019F0D1FD0820DC
:10E3400019F002FE0F4B003018BF012018701B7827
:10E35000002BD4F8203714BF4FF440324FF4003272
:10E360001343C4F82037084B1D7038BD00600040CF
:10E3700000E100E0505E0020495E0020535E002076
:10E380005C5E0020545E0020525E002008B5FFF75E
:10E39000D5FC10B902F004FA18B1034B01221A702F
:10E3A00008BD02F061FCF8E75D5E002008B55D4B3A
:10E3B000D3F87C21002A00F0B0800022C3F87C2131
:10E3C0000D2019F0C1FD584A0030137818BF012004
:10E3D000984217D04FF0A0431070D3F8341721F4AF
:10E3E0004031C3F834171278002AD3F8342714BF09
:10E3F0004FF440314FF400310A43C3F834274B4BFC
:10E4000001221A70132019F09FFD494A0030137839
:10E4100018BF0120984217D04FF0A0431070D3F8D6
:10E420004C1721F44031C3F84C171278002AD3F866
:10E430004C2714BF4FF440314FF400310A43C3F866
:10E440004C273C4B01221A700C2019F07DFD3A4AF2
:10E450000030137818BF0120984217D04FF0A04326
:10E460001070D3F8301721F44031C3F83017127808
:10E47000002AD3F8302714BF4FF440314FF4003155
:10E480000A43C3F830272D4B01221A701C2019F0C3
:10E490005BFD2B4B00301A7818BF0120904218D03A
:10E4A0004FF0A0421870D2F8701721F44031C2F832
:10E4B000701719780029D2F8701714BF4FF4403044
:10E4C0004FF400300143C2F870171B780BB9FFF707
:10E4D0005DFF082019F038FD1A4B00301A7818BF7C
:10E4E0000120904219D04FF0A0421870D2F82017A6
:10E4F00021F44031C2F8201719780029D2F82017EA
:10E5000014BF4FF440304FF400300143C2F82017DD
:10E510001B7813B90C4B01221A70024BD3F87C31D3
:10E5200008BD00BF00600040505E0020485E002033
:10E53000495E00204A5E0020535E00205F5E00209E
:10E540005C5E0020545E00205E5E002008B5042062
:10E5500002F07CF902F072F9FEF784FB28B14FF467
:10E560007A70BDE80840FFF73FBEFFF725FEBDE823
:10E57000084001F0ADBB08B5052002F067F902F0D4
:10E580005DF9FEF767FB28B14FF47A70BDE80840EB
:10E59000FFF72ABEFFF710FEBDE8084001F098BB68
:10E5A00010B5FFF7E3FD30B1164C19F05DFB2368A1
:10E5B000C01AC8280DD8144B1A7812B300221A704A
:10E5C00019F052FB114B1B68BDE81040C01A01F056
:10E5D000C1BB19F049FB2060062002F037F938B9B9
:10E5E000094B01221A7019F03FFB084B186010BD4F
:10E5F00001F01CFB2820FFF7D1FDBDE8104002F020
:10E600001DB910BD4C5E0020515E0020585E0020F8
:10E6100010B5012088B002F021FB072002F016F9A6
:10E6200070B902AC204602F053FB08AB13E90300BB
:10E630008DE8030094E80F0001F09AFB02F0FAFA6B
:10E6400008B0BDE8104002F0F9B808B5092002F0A2
:10E65000FDF8BDE8084002F0F1B8000008B5134B22
:10E660001A781AB100221A70FFF770FF104B1A784F
:10E670001AB100221A70FFF77EFF0E4B1A781AB1FA
:10E6800000221A70FFF78CFF0B4B1A781AB1002288
:10E690001A70FFF7BDFF094B1A782AB100221A70D1
:10E6A000BDE80840FFF7D1BF08BD00BF5F5E002096
:10E6B0004A5E0020485E00205D5E00205E5E002015
:10E6C0004FF0A043D3F8342722F44032C3F8342764
:10E6D000D3F83427C3F83427D3F84C2722F4403238
:10E6E000C3F84C27D3F84C27C3F84C27D3F830276E
:10E6F00022F44032C3F83027D3F83027C3F830274C
:10E70000D3F8702722F44032C3F87027D3F870276B
:10E71000C3F87027D3F8202722F44032C3F820270B
:10E72000D3F82027C3F82027014B00221A70704726
:10E73000525E002042F210707047282070477047E8
:10E740007047704770477047704784B001A880E8F1
:10E750000E0004B0704784B001A880E80E0004B039
:10E7600070477047704770474CF2503070477047A1
:10E7700084B001A880E80E0004B07047704770476D
:10E7800084B001A880E80E0004B07047704770475D
:10E7900084B001A880E80E0004B07047704770474D
:10E7A00070477047704770477047704770477047B1
:10E7B00070477047704770477047704770477047A1
:10E7C0007047704770477047704770477047000048
:10E7D000054B1B681A6810B4146B0A4601461846AC
:10E7E00023465DF8044B18474421002008B50BF080
:10E7F00077FFBDE8084004F076B808B5FFF7F6FFEC
:10E80000BDE8084006F0B4BD13B5FFF7EFFF0021E7
:10E8100013F09CFC0C49044613F03CFC20460B49C9
:10E8200013F01EFD2046C82106F0B0FB2046084923
:10E8300005F0EEFB002300931A461946204605F02A
:10E840009FFE02B010BD00BFE8B30300AC20002063
:10E85000C1FF010013B5FFF7C9FF002113F076FCDB
:10E860000C49044613F016FC20460B4913F0F8FC43
:10E870002046C82106F08AFB2046084905F0C8FB5F
:10E88000002300931A461946204605F079FE02B08F
:10E8900010BD00BFF1B30300A0200020FDFF010068
:10E8A00013B5FFF7A3FF002113F050FC0C490446F9
:10E8B00013F0F0FB20460B4913F0D2FC2046C82190
:10E8C00006F064FB2046084905F0A2FB00230093F4
:10E8D0001A461946204605F053FE02B010BD00BF8F
:10E8E000FEB30300942000203D00020010B5044B4D
:10E8F000044640F8043B19F01CF8204610BD00BF48
:10E90000A0AF030010B5044B044640F8043B19F0D7
:10E9100010F8204610BD00BFDCAE0300424B2DE9CD
:10E92000F34101221A70FFF761FF002117F02EF862
:10E930003E49044616F0FEFE3D490546204616F0C7
:10E94000F9FE3C498046204616F0F4FE00210746B9
:10E95000284612F069FF002406469A22C821364D47
:10E9600006F0C0FA2346224621463046009405F0C0
:10E9700007FE324A3249304612F096FD294605F02C
:10E9800047FB304A3049304612F08EFD294605F0EB
:10E990003FFB2E4A2E49304612F086FD294605F0EF
:10E9A00037FB2146404612F03FFF9A220646C82117
:10E9B00006F098FA2346224621463046009405F098
:10E9C000DFFD244A2449304612F06EFD294605F049
:10E9D0001FFB224A2249304612F066FD294605F007
:10E9E00017FB2146384612F01FFF9A220646C8211F
:10E9F00006F078FA2346224621463046009405F078
:10EA0000BFFD184A1849304612F04EFD294605F060
:10EA1000FFFA164A1649304612F046FD294602B062
:10EA2000BDE8F04105F0F4BA885E002009B40300A7
:10EA30000FB4030014B40300D1E701001DB40300B8
:10EA400024B4030028B403002CB4030030B4030042
:10EA50003BB403003FB4030044B4030048B40300D4
:10EA6000043F04004EB4030054B403009AB50300FD
:10EA700058B4030000B50E2989B003D1202269469D
:10EA800010F03AFE09B05DF804FB00B50E2989B01C
:10EA900003D12022694610F02FFE09B05DF804FB77
:10EAA00070B586B004466D46684602F011F90FCD88
:10EAB000261D0FC695E8030086E803001249227957
:10EAC000206A12F081F96279606A104912F07CF9CB
:10EAD000A279A06A0E4912F077F9A268E06A0D499E
:10EAE00012F072F9E2680C49206B12F06DF91C20EB
:10EAF000A46B19F029FA09490246204606B0BDE880
:10EB0000704012F061B900BF5CB403006AB4030046
:10EB10007CB4030088B403008EB4030094B40300F3
:10EB2000F0B5594B89B00446012602A802AD1E700B
:10EB300002F0CEF80FCD271D0FC795E8030087E838
:10EB40000300FFF753FE002112F03EFA0025E061BA
:10EB50004E494F4F12F0CEF800952B4632462946CB
:10EB6000E06905F00DFDFFF741FE294612F02CFA91
:10EB700022792062394612F027F919230093324690
:10EB80000A232946206A05F0FBFCFFF72FFE2946E1
:10EB900012F01AFA62796062394612F015F92D23E3
:10EBA000009332460A232946606A05F0E9FCFFF724
:10EBB0001DFE294612F008FAA279A062354912F02A
:10EBC00003F94123009332460A232946A06A05F03F
:10EBD000D7FCFFF70BFE294612F0F6F9A268E062B7
:10EBE0002D4912F0F1F85523009332460A232946A5
:10EBF000E06A05F0C5FCFFF7F9FD294612F0E4F9DB
:10EC0000E2682063254912F0DFF869230093324659
:10EC10000A232946206B05F0B3FCFFF7E7FD2946E0
:10EC200012F0D2F9E17E637E227E60630191A17EC3
:10EC300000911B4912F0C8F8676BFFF7D7FD7D23E1
:10EC400032460146009338460A2305F099FCFFF747
:10EC5000CDFD294612F0B8F90546A0631C2019F035
:10EC600073F910490246284612F0AEF8A46BFFF77C
:10EC7000BDFD9123009301460A233246204605F04C
:10EC80007FFC09B0F0BD00BF885E0020A2B4030085
:10EC90005CB403007CB40300AEB40300B6B403005C
:10ECA000BEB4030094B4030037B50446FFF79EFDDD
:10ECB000002112F089F91B49606012F01BF86FF017
:10ECC0001D03009300231A46194604F15405606899
:10ECD00005F056FC2846144906F0ECFF5F2205219A
:10ECE0000A200CF03EF8114BA367A4F87400FFF75C
:10ECF0007DFD002112F068F92946E06005F0D0FEA4
:10ED00000B49E06811F0F6FFE468FFF76FFD14238C
:10ED1000009301466FF013030022204605F030FCFB
:10ED200003B030BDDEB4030058A80020B820002096
:10ED3000E7B40300F7B50446FFF758FD002115F0CE
:10ED40004DFA6422A062172106F0CCF8B4F9342001
:10ED5000A06A784F01210DF069FF616B236BA06AF7
:10ED60000131C91A0025002209B20DF0F5FE6FF03D
:10ED7000030308222946A06A009505F001FC2946F4
:10ED8000A06A05F0C7F8A06A13F07EFD294605F0D9
:10ED9000C1F8FFF72BFD294612F016F9636BE0620C
:10EDA000226B654912F010F82B4602222946E06AD0
:10EDB000009505F0E5FBFFF719FD294611F042FA31
:10EDC000636860615A68294611F09AFA636860695D
:10EDD0005A68012111F094FA294660690EF0FCF995
:10EDE0001C226069202105F04BFB3946606905F063
:10EDF0000FF9FFF7FBFC294612F0E6F86368606242
:10EE00000226196811F076FF2B462A466169606A6E
:10EE1000009605F0B5FBFFF7E9FC294611F012FA60
:10EE2000A368A0615A68294611F06AFAA368A0692C
:10EE30005A68012111F064FA2946A0690EF0CCF954
:10EE40001C22A069882105F01BFB3946A06905F04A
:10EE5000DFF8FFF7CBFC294612F0B6F8A368606232
:10EE6000196811F047FF2B462A46A169606A00968F
:10EE700005F086FBFFF7BAFC294611F0E3F9E368D9
:10EE8000E0615A68294611F03BFAE368E0695A6884
:10EE9000012111F035FA2946E0690EF09DF984222E
:10EEA000E069202105F0ECFA3946E06905F0B0F898
:10EEB000FFF79CFC294612F087F8E3686062196846
:10EEC00011F018FF2B462A46E169606A009605F0AA
:10EED00057FBFFF78BFC294611F0B4F92369206238
:10EEE0005A68294611F00CFA2369206A5A680121F0
:10EEF00011F006FA2946206A0EF06EF98422206A83
:10EF0000882105F0BDFA3946206A05F081F8FFF73F
:10EF10006DFC294612F058F823696062196811F0F7
:10EF2000E9FE00962B462A46216A606A05F028FB16
:10EF300003B0F0BDD1E70100ECB403002DE9FF41BF
:10EF4000C6680446002101A801F0F6FA039B0BB144
:10EF5000DDF804804146304611F0CCFE01A818F0DF
:10EF6000E8FC002101A8266901F076FB039B03B1B0
:10EF7000019F3946304611F0BDFE01A818F0D9FCBA
:10EF8000002101A8A46801F01FFB039B03B1019DB0
:10EF90002946204611F0AEFE01A818F0CAFC04B0C4
:10EFA000BDE8F08110B5C468FDF716FE03490246BE
:10EFB0002046BDE8104011F007BF00BFF2B40300C7
:10EFC0002DE9F0438DB0044606AD06A801F0EEFC35
:10EFD0000FCD261D0FC695E80300256986E80300BE
:10EFE0001DB10C2D02DD0C3D00E00C2502AE3046BB
:10EFF000FDF732FC96E80F0004F16C0804F11C07E1
:10F0000087E80F004046924906F054FE5F22052132
:10F010000A200BF0A6FE04F12C068E4BC4F89030AB
:10F02000A4F88C008A49304606F044FE5F22052190
:10F030000A200BF096FE884B2365A4F84C00FFF7DE
:10F04000D5FB002111F0C0FF6369C4F8BC002A465B
:10F050008249002511F0B8FE3146D4F8BC0005F015
:10F060001FFD2B462A462946D4F8BC00009505F022
:10F0700087FAFFF7BBFB294611F0A6FF6368C4F8C7
:10F08000C0000093A268E368754911F09DFE6FF01F
:10F090000C030D22D4F8BC100093D4F8C0002B460A
:10F0A00005F06EFAFFF7A2FB294611F08DFF01274C
:10F0B000C4F8CC006B4911F01DFE3A4602232946E4
:10F0C0000097D4F8CC0005F05BFAFFF78FFB2946D8
:10F0D00011F07AFF02260323D4F8CC10C4F8C8003C
:10F0E0001322009605F04CFAD4F8C890FDF774FD91
:10F0F0005D490246484611F067FE4146D4F8C80013
:10F1000005F0CEFCD4F8CC0006F050F904F5887870
:10F110000146404606F0CEFD5F2205210A200BF095
:10F1200020FE4146A4F83001D4F8CC0005F0B8FC2C
:10F13000FFF75CFB294611F047FF16233A46C4F857
:10F14000C40000932946334605F01AFA4749D4F81B
:10F15000C40011F0CFFDD4F8C40006F027F904F183
:10F16000D0070146384606F0A5FDF82384F8F030B4
:10F1700094F8F130D4F8C40003F0E00365F34713CA
:10F1800084F8F1303A4BC4F8F430394605F088FC85
:10F19000FFF72CFB294610F02FFF3649C4F89001E9
:10F1A00010F07CFE6FF01803042229460093D4F877
:10F1B0009001334605F0E4F9FFF718FB294611F0FA
:10F1C00003FFF021C4F8B00005F0E0FED4F8B07001
:10F1D000FEF756FD28490246384611F0F5FD334644
:10F1E0001322D4F89011D4F8B000009505F0C8F9B6
:10F1F000FFF7FCFA294610F0FFFE2049C4F89401FD
:10F2000010F04CFE6FF00403042229460093D4F85A
:10F210009401334605F0B4F9FFF7E8FA294611F0F6
:10F22000D3FEF021C4F8B40005F0B0FE626AD4F851
:10F23000B400114911F0C8FD009533461322D4F8EB
:10F240009411D4F8B40005F09BF90DB0BDE8F0833B
:10F2500058A8002060210020B8200020F7B4030047
:10F2600001B5030010B50300F2B4030014B50300A8
:10F27000A8210020043F04003EB503001CB6030093
:10F2800010B50446FEF7F0FCFD28024609D001D86F
:10F2900080B10BE0FE2802D0FF280BD006E00A491F
:10F2A00000E00A49A06811F08FFD03E00849A0685A
:10F2B00011F08AFDE468FEF7E3FC064902462046A9
:10F2C000BDE8104011F080BD18B5030025B503005E
:10F2D0003AB5030035B50300F0B58DB0044606AD70
:10F2E00006A801F063FB0FCD261D0FC695E80300AD
:10F2F000256986E803001DB10C2D02DD0C3D00E000
:10F300000C2502AF3846FDF7A7FA97E80F0004F185
:10F310001C0686E80F002A4663693649D4F8BC000B
:10F3200011F052FD6368A26833490093D4F8C0001D
:10F33000E36811F049FDD4F8C850FDF74DFC2F49A2
:10F340000246284611F040FDFDF746FC0E2801DC80
:10F350002B4905E0FDF740FC4B28CCBF29492A4941
:10F36000D4F8CC0011F0C6FCD4F8B050FEF788FCFD
:10F3700026490246284611F027FD626A2349D4F83F
:10F38000B40011F021FDFDF71DFD20B1204B1B88BD
:10F39000A4F8F0300BE060F0070384F8F03094F844
:10F3A000F13060F3040360F3471384F8F13004F1A3
:10F3B000D001D4F8C40005F073FBFDF70DFC0E2856
:10F3C0000BDCF82384F8303194F8313103F0E0039A
:10F3D0006FF3471384F8313103E00D4B5B88A4F8D9
:10F3E0003031D4F8CC0004F588710DB0BDE8F040A0
:10F3F00005F056BBF7B4030001B50300F2B40300F7
:10F4000041B5030010B5030045B503003EB5030048
:10F4100018B00300FEF708BC01F0F4B910B5436D55
:10F420008B428EB004462BD1032A29D1202206A973
:10F43000406E10F061F9206D06A911F05BFC0434F8
:10F4400006A903A818F0B7FA03A9204618F0FBFA9A
:10F4500003A818F06EFA0B49684618F0ACFA21467A
:10F46000684618F06AFB014603A818F0E2FA03A800
:10F47000FDF70EFD03A818F05CFA684618F059FA7B
:10F480000EB010BD49B5030010B5436D8B428EB070
:10F4900004462BD1032A29D1202206A9C06D10F0E1
:10F4A0002BF9206D06A911F025FC043406A903A848
:10F4B00018F081FA03A9204618F0C5FA03A818F03D
:10F4C00038FA0B49684618F076FA2146684618F073
:10F4D00034FB014603A818F0ACFA03A8FDF7D8FCEA
:10F4E00003A818F026FA684618F023FA0EB010BDEB
:10F4F00049B5030007B5012300930A460FF0C8F988
:10F5000003B05DF804FB00006F4B2DE9F7430126C3
:10F510001E706E4BDFF8DC911B6843636C4B1B68FD
:10F5200083636C4B1B68C3630446FFF75FF90021DC
:10F5300011F04AFD00256060674911F0DBFB2B46A6
:10F54000324629466068009505F01AF8FFF74EF933
:10F5500029460DF0A7FE614EA060314604F058FD2B
:10F560006FF0360305222946A068009505F008F8DB
:10F570002946A068FFF7BEFF2946A06811F024FDC8
:10F580005749206111F0B6FBFFF730F929460DF01D
:10F5900089FE3146E06004F03BFD2946E068FFF754
:10F5A000A9FF372305222946E068009504F0E8FF0B
:10F5B0002946E06811F008FD4A49606111F09AFBA4
:10F5C000FFF714F9294610F0FDF86FF03108E061FB
:10F5D00049460FF09BFF2A466FF054032946E06925
:10F5E000CDF8008004F0CCFF3146E06904F010FD56
:10F5F000A18EE0690FF0DCFFFFF7F8F8294611F063
:10F60000E3FC6FF001072062374911F073FB2B46D2
:10F610000A22E169206A009704F0B2FFFFF7E6F8DA
:10F62000294610F0CFF8494660620FF06FFF2B4675
:10F630002A462946606ACDF8008004F0A1FF3146D1
:10F64000606A04F0E5FC218F606A0FF0B1FFFFF7FC
:10F65000CDF8294611F0B8FC2449A06211F04AFB0C
:10F660002B460A22616AA06A009704F089FFFFF71F
:10F67000BDF8294610F0A6F84946E0620FF046FFB3
:10F680002A4655232946E06ACDF8008004F078FF29
:10F690003146E06A04F0BCFCA18FE06A0FF088FFFD
:10F6A000FFF7A4F8294611F08FFC1149206311F0EF
:10F6B00021FB00972B460A22E16A206B04F060FFD1
:10F6C00003B0BDE8F08300BF885E00203021002039
:10F6D000402100208C62002052B50300D1E70100D8
:10F6E0005DB5030063B5030087B503008CB5030067
:10F6F00091B5030068B50300474BF7B501260446F2
:10F700001E70FDF7C3F86060FFF770F8002111F07C
:10F710005BFC0025A0604149414F11F0EBFA2B46FC
:10F7200032462946A068009504F02AFFFFF75EF8EC
:10F7300029460DF0B7FD3946E06004F069FC6FF032
:10F74000360305222946E068009504F019FF294692
:10F75000E068FFF7CFFE2946E06811F035FC31493B
:10F76000606111F0C7FAFFF741F829460DF09AFDE4
:10F770003946206104F04CFC29462069FFF7BAFEA7
:10F780003723052229462069009504F0F9FE294611
:10F79000206911F019FC2449A06111F0ABFAFFF7C0
:10F7A00025F8294614F01AFD0722206231460DF093
:10F7B0003DFA3946206A04F02BFC6FF009032A4613
:10F7C00029460093206A2B4604F0DAFE276AFDF7EB
:10F7D0005DF82A4601B238460DF0BEF9FFF706F88B
:10F7E000294611F0F1FB07466062206A14F070FDB3
:10F7F0000E490246384611F0E7FA3146606A04F0D5
:10F8000073FB0A2300930D222B46216A606A04F0E1
:10F81000B7FE03B0F0BD00BF885E002096B50300C0
:10F82000D1E701005DB5030063B50300A5B5030092
:10F83000F7B52E4B2E4900F110060446012730463D
:10F840001F7006F037FA2B4B6363FEF7CFFF0021E2
:10F8500011F0BAFB00252065274911F04BFA2B4621
:10F860003A462946206D009504F08AFEFEF7BEFF59
:10F8700029460DF017FD2149606504F0C9FB6FF0C2
:10F8800013030522009329462B46606D04F078FE91
:10F890002946606DFFF72EFE2946606D11F094FB3E
:10F8A0001749A06511F026FAFEF7A0FF294614F0CB
:10F8B000FFF83146E06505F0F3F82A46E06D11499E
:10F8C00014F06CFAE06D032114F0AAF86FF01D0338
:10F8D00000932946E06D2B462A4604F051FE0A4962
:10F8E000E06D03B0BDE8F04004F092BB885E0020FC
:10F8F00058A8002000220020A8B50300D1E701008D
:10F90000ADB50300B2B5030075EA010038B50F4C80
:10F910000F490546204606F0CDF90E4A0E4B1268F7
:10F92000656233F8122062800C4A126833F81220A4
:10F93000A2800B4A126833F812302384FEF756FF78
:10F940002146BDE8384005F0ABB800BFD4610020C7
:10F9500058A800203021002008210020402100204C
:10F960008C62002013B50D48FFF7D0FFFEF73EFF75
:10F97000002111F029FB0A49044611F0BBF9204689
:10F98000012110F0C7FD3C23009300231A461946BD
:10F99000204604F0F5FD02B010BD00BFD4210020C8
:10F9A000D9B5030037B50546FEF732F9FEF71EFF5D
:10F9B000002111F009FB00246860184911F09AF940
:10F9C0002346012221466868009404F0D9FD1448BA
:10F9D000FFF79CFFFEF70AFF214611F0F5FA1149E7
:10F9E000A86011F087F93223012221460093A8680C
:10F9F0000A2304F0C5FDFEF7F9FE214611F0E4FAF2
:10FA00000949E86011F076F95023009301220A2396
:10FA10002146E86804F0B4FD03B030BDE7B503004B
:10FA200000220020F6B50300F1B503002DE9F041F6
:10FA3000044686B03B48FFF769FFFEF7D7FE00217A
:10FA400011F0C2FAF021E06005F0A0FA3649E06852
:10FA500011F050F9002103A8E56800F06DFD059B49
:10FA600003B1039F3946284611F044F9002503A845
:10FA700017F05FFF2B4601222946E068009504F04D
:10FA80007FFDFEF7B3FE294611F09EFAF0212061BA
:10FA900005F07CFA2449206911F02CF9294603A8C5
:10FAA000276900F0D9FD059B0BB1DDF80C804146BC
:10FAB000384611F01FF903A817F03BFF19230093F4
:10FAC000002319460122206904F05AFDFEF78EFE3C
:10FAD000002111F079FA0121A06011F007FAF0215C
:10FAE000A06805F053FA1049A06811F003F900214D
:10FAF00003A8A56800F068FD059B03B1039E31468D
:10FB0000284611F0F7F803A817F013FF32230093EB
:10FB1000002301221946A06804F032FD06B0BDE8BA
:10FB2000F08100BFA821002037AB030073B5044665
:10FB3000FEF75CFE00210DF0B5FB2B4EE0650025C5
:10FB4000314604F065FA2B4603222946E06D009504
:10FB500004F016FDE06D0121FFF7CCFC2946E06DB5
:10FB600011F032FA2149206611F0C4F8FEF73EFE8A
:10FB700029460DF097FB3146606504F049FA2B46A3
:10FB800001222946606D009504F0FAFC606D0121A8
:10FB9000FFF7B0FC2946606D11F016FA1449A06514
:10FBA00011F0A8F8FEF722FE294613F081FF04F1B8
:10FBB0001001606604F074FF2A46606E0D4914F06F
:10FBC000EDF8606E012113F02BFF2946606E009561
:10FBD0002B46022204F0D4FC0749606E02B0BDE857
:10FBE000704004F015BA00BFD1E70100FAB5030078
:10FBF000FCB5030068B503008BEA010010B5074BA4
:10FC000007490446012210301A7006F053F8054BDC
:10FC100063632046FFF78AFF10BD00BF885E0020A7
:10FC200058A800200022002070470000044B054A1D
:10FC300019681160044A1A60044B00221A60704768
:10FC4000442100202C2100203860002000210020C9
:10FC500008B5FFF7EBFF2820BDE80840FEF79EBA85
:10FC6000FFF7E4BFFFF7E2BFFFF7E0BFFFF7DEBF3C
:10FC7000FFF7DCBF84B001A804B080E80E00FFF7F6
:10FC8000D5BF84B001A804B080E80E00FFF7CEBF56
:10FC9000FFF7CCBFFFF7CABFFFF7C8BFFFF7C6BF6C
:10FCA000FFF7C4BFFFF7C2BFFFF7C0BF044B054A51
:10FCB00019681160044A1A60044B00221A607047E8
:10FCC000442100202C2100209462002000210020EB
:10FCD000044B054A19681160044A1A60044B00225B
:10FCE0001A607047442100202C210020F45E00207F
:10FCF0000021002038B5114D114C2846FFF706FEB3
:10FD0000104B22681A60104B10481860104B20608E
:10FD100000221A70FEF771FD2846FFF7F7FD2068F4
:10FD200003681B689847206803685B689847FDF77D
:10FD300019FCBDE838400CF057BB00BFA8210020DB
:10FD4000442100202C21002020210020E42000203C
:10FD5000885E002010B5044600F070FD034B186863
:10FD600002682146526ABDE8104010474421002035
:10FD700084B030B585B008AC84E80F009DF8203021
:10FD8000022B04D1204B18680368DB6831E0012B9B
:10FD900004D11D4B186803681B692AE0052B0BD1A1
:10FDA000194B1C680BAB93E8070025688DE807002A
:10FDB00008AB0ECBED690CE00C2B0DD1124B1C687F
:10FDC0000BAB93E8070025688DE8070008AB0ECB66
:10FDD0002D6A2046A84711E0032B04D10A4B18686E
:10FDE00003685B6905E0042B08D1074B18680368BA
:10FDF0009B6905B0BDE8304004B0184705B0BDE8C8
:10FE0000304004B0704700BF44210020024B186806
:10FE10000368DB6A184700BF4421002038B5174D3E
:10FE200038B917F021FF2B68C41AFFF7EFFF84429F
:10FE30001FD917F019FF124C2860124D236828684B
:10FE4000834211D003689B689847206803685B6B06
:10FE500098470D48FFF75AFD20680C4B2860002298
:10FE60001A7003681B689847054B186803685B683D
:10FE70009847BDE838400CF0B7BA00BF9062002048
:10FE80004421002020210020A8210020885E00209D
:10FE9000024B034A19681160186070474421002022
:10FEA0002C210020032A1FB53BD1084611F0E0FBAE
:10FEB000014601A817F07FFD1B4901A817F05BFE62
:10FEC00008B11A4828E01A4901A817F054FE08B1F1
:10FED000184821E0184901A817F04DFE08B117484D
:10FEE0001AE0174901A817F046FE08B1154813E0BB
:10FEF000154901A817F03FFE08B114480CE0144959
:10FF000001A817F038FE08B1124805E0124901A80F
:10FF100017F031FE10B11148FFF7BAFF01A817F032
:10FF200008FD05B05DF804FB1DB4030004210020AA
:10FF300028B403004821002030B40300242100200D
:10FF40004EB40300885F00203FB40300C85F002068
:10FF50009AB50300605E002048B4030028600020CA
:10FF6000032A15D143698B4201D143680DE08369AF
:10FF7000994201D1836808E0C369994201D1C368FD
:10FF800003E0036A994203D103699868FFF780BFD1
:10FF900070470000024B186803689B6A184700BF4F
:10FFA00044210020024B1A68024B1A60704700BFC0
:10FFB0002C21002044210020FFF7F4BFFFF7F2BFFF
:10FFC0000E2910B5044612D111F0DCFE084B834215
:10FFD00003D1BDE81040FDF760BA204611F0D2FE13
:10FFE000044B834203D1BDE81040FFF7DBBF10BDD7
:10FFF000FEB5030002B60300FFF7D4BF0E2910B50B
:020000022000DC
:10000000044613D111F0BEFE094B834204D10120F6
:10001000BDE81040FDF731BA204611F0B3FE054BA4
:10002000834203D1BDE81040FFF7BCBF10BD00BF45
:10003000FEB5030002B60300FFF7B4BF0E2910B5EA
:10004000044612D111F09EFE084B834203D1BDE855
:100050001040FDF727BA204611F094FE044B83426E
:1000600003D1BDE81040FFF79DBF10BDFEB50300F2
:1000700002B6030038B5C3688B42044608D1032A90
:1000800006D14068FCF708FCBDE83840FFF78ABF9E
:100090002369994208D1032A06D1FFF783FF232061
:1000A000BDE83840FEF77AB8236A99420FD10E2A8C
:1000B0000DD1084614F00CF9054905460246606A60
:1000C00010F082FE2846BDE83840FCF7E5BB38BD9D
:1000D000A5B5030008B503460846996881420ED1CC
:1000E000062A0CD11C4A596B11601C4A996B11608D
:1000F000DA6B1B4B1A60BDE80840FFF753BFD968A5
:10010000884208D1062A06D1FFF74CFF2320BDE81C
:100110000840FEF743B8D969884205D10E2A03D1B9
:100120000FF0D8FA0C4B10E0596A884205D10E2A1C
:1001300003D10FF0CFFA094B07E0DB6A98420AD1EE
:100140000E2A08D10FF0C6FA054B18600548BDE825
:100150000840FFF7DBBB08BD302100204021002014
:100160008C620020A8210020FFF71CBF014B1878EB
:10017000704700BF885E00200A490B4B0A681A606E
:100180000A4B0B481A680068013282421A6001DC8F
:10019000002A01DA00221A601A68064B53F822304E
:1001A0000B607047442100202C21002000210020FA
:1001B0005821002050210020FFF7DEBFFFF7DCBFF1
:1001C0000A490B4B0A681A600A4B0B481A68006808
:1001D000013A002A1A6001DB824200DD18601A68C9
:1001E000064B53F822300B60704700BF44210020BB
:1001F0002C21002000210020582100205021002027
:10020000FFF7DEBFFFF7DCBF214B224A70B51A6053
:10021000214B224A1A60224B224A1A60224B234C5D
:10022000234A1A60234B244A244E1A602046244B4A
:10023000244D40F8043B314617F0BDFB2A462249C5
:10024000204618F009FD214B214A224C1A60224B0E
:10025000224A1A602046224B40F8043B314617F0F0
:10026000AAFB2A461F49204618F0F6FC1E4B1F49E0
:100270001A681F4B5A631F4A5A601F4A9A601F4AE6
:100280001960DA6001211E4A19631A6170BD00BF4E
:100290003860002098AC030028600020D8AC030030
:1002A00094620020D8AD0300885F00208C5E00209F
:1002B0001CAE0300605E00205CAE030037AB0300A1
:1002C000DCAE03008020002005E90100F45E002080
:1002D0001CAF0300C85F00201462002060AF030061
:1002E000A0AF0300EDE801004C2100209CAE03000C
:1002F0005462002014210020E82000203421002036
:10030000F42000207047F8B58E6807460D4600249B
:10031000B4420FDA2146284617F040FC03781F2B21
:1003200001D90134F4E701222146284617F07EFC6A
:10033000013EEDE72946384617F0ECFA3846F8BD9D
:100340002DE9F0412C218AB0044617F043FC471CEC
:100350003A462C21204617F02FFC461C8046324698
:100360002C21204617F028FC434605463A462146F4
:1003700001A817F033FC2B463246214607A817F098
:100380002DFC07A817F06BFC07A817F0D2FAA3689A
:100390006A1C214607A817F021FC07A817F05FFC8C
:1003A00007A817F0C6FA01A904A817F042FB04A990
:1003B00007A8FFF7A8FF07A90D4817F044FB07A8F7
:1003C00017F0B7FA04A817F0B4FA012000F03EFACB
:1003D000FFF76CFCFDF7F0FE6420FDF705FF00F071
:1003E0002DFA01A817F0A5FA0AB0BDE8F08100BF08
:1003F000AC62002010B58AB00446114901A817F07C
:10040000DAFA214601A817F098FB014604A817F074
:1004100010FB04A907A8FFF776FF07A9094817F002
:1004200012FB07A817F085FA04A817F082FA01A8B2
:1004300017F07FFAFDF7C0FE00F000FA0AB010BD19
:10044000103F0400DC62002010B58AB00446104959
:1004500001A817F0B0FA214601A817F06EFB01467B
:1004600004A817F0E6FA04A907A8FFF74CFF07A9AC
:10047000084817F0E8FA07A817F05BFA04A817F085
:1004800058FA01A817F055FA00F0D8F90AB010BDD3
:10049000173F0400E862002010B58AB004461049F6
:1004A00001A817F088FA214601A817F046FB01467B
:1004B00004A817F0BEFA04A907A8FFF724FF07A9AC
:1004C000084817F0C0FA07A817F033FA04A817F085
:1004D00030FA01A817F02DFA00F0B0F90AB010BDFB
:1004E000243F0400C462002010B58AB004461049BD
:1004F00001A817F060FA214601A817F01EFB01467B
:1005000004A817F096FA04A907A8FFF7FCFE07A9AC
:10051000084817F098FA07A817F00BFA04A817F084
:1005200008FA01A817F005FA00F088F90AB010BD22
:100530002B3F0400D062002070B5204B86B00546EA
:100540000C4631B99A6822B11C49284617F071FA55
:1005500031E09B68194E9C4214D9314603A817F02C
:1005600068FAB3680026E41AA64205DA144903A81B
:1005700017F0D4FA0136F7E703A9284617F0CAF9AD
:1005800003A816E0E0D2E31E00223146684617F0C9
:1005900025FB694603A817F04CFA0A4903A817F08F
:1005A000D8FA0146284617F044FA03A817F0C1F913
:1005B000684617F0BEF9284606B070BDE862002014
:1005C000313F0400333F040070B5204B86B0054630
:1005D0000C4631B99A6822B11C49284617F029FA0D
:1005E00031E09B68194E9C4214D9314603A817F09C
:1005F00020FAB3680026E41AA64205DA144903A8D3
:1006000017F08CFA0136F7E703A9284617F082F9AC
:1006100003A816E0E0D2E31E00223146684617F038
:10062000DDFA694603A817F004FA0A4903A817F08F
:1006300090FA0146284617F0FCF903A817F079F95B
:10064000684617F076F9284606B070BDC4620020EF
:10065000313F0400333F040070B5204B86B005469F
:100660000C4631B99A6822B11C49284617F0E1F9C5
:1006700031E09B68194E9C4214D9314603A817F00B
:10068000D8F9B3680026E41AA64205DA144903A88B
:1006900017F044FA0136F7E703A9284617F03AF9AC
:1006A00003A816E0E0D2E31E00223146684617F0A8
:1006B00095FA694603A817F0BCF90A4903A817F090
:1006C00048FA0146284617F0B4F903A817F031F9A3
:1006D000684617F02EF9284606B070BDD06200209B
:1006E000313F0400333F0400F8B5204E204F214D28
:1006F000214C3146384617F05EF938461F4F2A46DE
:10070000214618F0A9FA3146384617F054F9384610
:100710001B4F2A46214618F09FFA3146384617F0FB
:100720004AF93846174F2A46214618F095FA3146BD
:10073000384617F040F93846134F2A46214618F03C
:100740008BFA3146384617F036F938460F4F2A46AD
:10075000214618F081FA3146384617F02CF92A461E
:1007600021463846BDE8F84018F076BA313F04001B
:10077000AC6200208020002033790300DC6200207E
:10078000E8620020C4620020D0620020B86200202D
:100790003BDF704748DF70470120FFF7F9BF0000DB
:1007A000014B1878704700BFF462002008B50120A3
:1007B00000F020FA0020FCF76FF8FCF7D3FEFFF7FB
:1007C00035FA0120FFF72AFBFDF72EFA0020FDF78E
:1007D0009DFC0020FDF7A0FC0020FCF74AFF084A22
:1007E0000023C2F8003502F5A832C2F8003502F540
:1007F000A042C2F8003502F58052C2F8003508BDAB
:1008000000700040064B10B51C7844B901221A70E4
:10081000FFF7CCFF2046BDE8104000F01FBA10BD26
:10082000F462002008B5FFF7B5FF034B4FF48002D8
:10083000C3F8802108BD00BF00E100E008B517F053
:1008400013FA014B186008BDF862002070B50F4D17
:100850002C780646BCB1002000F0CCF90C4B1E6091
:1008600000232B70FFF7EAFF0120FCF702FFFCF7E3
:1008700061F8FCF7EFF9054618B1FFF7D7F92C46F8
:1008800001E0FFF725FA204670BD00BFF4620020AA
:100890000463002038B5124C17F0E6F92368C01A3B
:1008A000B0F5967F1AD917F0DFF9206017F0DCF960
:1008B0000C4B1C68041BFFF76DFB0B4B1B68082BD4
:1008C000054609D100F0C4F930B9FBF707FF18B9A4
:1008D000BDE83840FFF796BFAC42F9D838BD00BF3D
:1008E00000630020F862002004630020024B002215
:1008F00018781A70704700BFFC6200200C4B102261
:10090000E021C3F8842183F824135A60094B0022A4
:10091000C3F8082540F21F52C3F840254FF4803237
:10092000C3F80423C3F8442301221A60704700BFB0
:1009300000E100E000400240114B07B5D3F8401140
:1009400001291AD10022C3F84021D3F8042502F26C
:100950001F52C3F84025D3F840310193019B094B46
:100960001970094B1B780BB9FCF7FCFDFDF74AFC2D
:10097000FDF7E4F908B9FDF789F903B05DF804FB68
:1009800000400240FC620020F4620020704707B57E
:1009900040F2E473002201930123009311461046B4
:1009A00016F04EFB03B05DF804FB000070B5064680
:1009B00016F03EFB0C4C206016F030FB606016F029
:1009C00023FBA06016F002FBE06016F009FB20613B
:1009D00016F010FB60610FCC35460FC594E803009C
:1009E00085E80300304670BD086300202DE9F04320
:1009F00087B0044601460423002203A817F0EEF84E
:100A000003A817F02CF9814603A816F092FF21469F
:100A10000623042203A817F0E1F803A817F01FF932
:100A2000804603A816F085FF21460823062203A866
:100A300017F0D4F803A817F012F9074603A816F028
:100A400078FF21460A23082203A817F0C7F803A855
:100A500017F005F9054603A816F06BFF0C230DEB04
:100A6000030021460A2217F0B9F803A817F0F7F897
:100A7000064603A816F05DFF0C220DEB020021468E
:100A80000E2317F0ABF803A817F0E9F8044603A803
:100A900016F04FFF8DE800033B46224631462846BC
:100AA00016F0CEFA07B0BDE8F08300001FB504468B
:100AB00016F0BEFA0A220146204616F0EFFF16F0A5
:100AC000ADFA092803DC2B49204617F027F816F069
:100AD000A5FA0A22014601A816F0E0FF01A9204666
:100AE00017F018F801A816F024FF16F08DFA09285F
:100AF00003DC2049204617F011F816F085FA0A2287
:100B0000014601A816F0CAFF01A9204617F002F815
:100B100001A816F00EFF16F059FA092803DC154952
:100B2000204616F0FBFF16F051FA0A22014601A8F2
:100B300016F0B4FF01A9204616F0ECFF01A816F04C
:100B4000F8FE16F04DFA092803DC0A49204616F093
:100B5000E5FF16F045FA0A22014601A816F09EFFAD
:100B600001A9204616F0D6FF01A816F0E2FE2046A5
:100B700004B010BDCAAB03001A4B70B51D6885BB2D
:100B8000012421460A201C6017F0AAF929461C20DE
:100B900017F0A6F921460A2017F0C4F9322017F001
:100BA0007BF829460A2017F0BDF9052017F074F8E4
:100BB0000D4D21460A2017F0B5F9322017F06CF8D8
:100BC00023460A4A28781521FDF7FEF9052017F07B
:100BD00063F82878064A0323A721BDE87040FDF793
:100BE000F3B970BD246300205C2100203C63002029
:100BF0003D63002013B5002104460A2017F092F946
:100C0000052017F049F80A20012117F08BF932204E
:100C100017F042F84CB102AA0548032302F8013D3F
:100C2000A52101230078FDF7ABF902B010BD00BF8C
:100C30005C210020014B01221A70704721630020C3
:100C4000024B002218781A70704700BF2163002001
:100C5000014B1878704700BF20630020014B1870CB
:100C6000704700BF20630020164B1B6807B50BB907
:100C7000FFF782FF144806236A4601210078FDF73A
:100C8000A3F9124B9DF800201A709DF801205A70AC
:100C90009DF802209DF80310596092119A70FF2967
:100CA0009DF805209A60184606D1FF2A04D1DA681B
:100CB0005A601A699A6001E0C160026103B05DF890
:100CC00004FB00BF246300205C2100202863002077
:100CD00070B5054D064604460FCD0FC495E80300D8
:100CE00084E80300304670BD286300200A4B0022D0
:100CF000C3F80C25C003C3F80C254FF47A7290FB9F
:100D0000F2F0C3F80405D3F8082542F00102C3F855
:100D1000082501221A6070470000014042F210705D
:100D2000FFF7E4BF024B034AC3F80026704700BF39
:100D3000000001403546526E0160828070470068B5
:100D400070478088704729DF704728DF7047036845
:100D50001868013018BF0120704708B54FF0805364
:100D60001A690368B3FBF2F31846FFF7EEFF112888
:100D7000FAD008BD38B504460D461946FFF7EDFF19
:100D80008B081A4629462068FFF7DDFF1128F8D0A6
:100D900038BD10B502680846043A441AA34204D983
:100DA00052F8044F40F8044BF7E710BD0B6843605E
:100DB0008B8803817047002343600381704708B527
:100DC0000160FFF7F8FF08BD807A7047C068704780
:100DD000007C704700207047C368585C704770B54E
:100DE0000D46114602680446D6691A46B0470123EB
:100DF000A374A36923B121462846BDE87040184773
:100E000070BD70B5044608460D4618F0C7F8236853
:100E1000C2B229462046DB69BDE870401847000091
:100E2000044B10B504460360C06808B117F08EFF8C
:100E3000204610BD403F040010B50446FFF7F0FF08
:100E4000204616F089FF204610BD10B5837A9A42DD
:100E5000044628BF1A460274C06817F07FFF606915
:100E600028B1036821461B68BDE8104018470120DF
:100E700010BD000070B504461D461646043042F60B
:100E8000030200F075F8142D4FF0000228460A4BBB
:100E9000236028BF1420A072E26022746674A274DA
:100EA000E2746261A261E261226215B117F046FF4D
:100EB000E060204670BD00BF403F0400407C7047AA
:100EC000C07C70470346002ADA7414BF0722082248
:100ED000084653F822200AB11946104770470B29DB
:100EE0009CBF063140F82120704741617047704730
:100EF0007047704700207047704770470020704768
:100F00000020704700207047002070470020704785
:100F10000020704700207047002070470020704775
:100F200000207047002070470020704770477047CE
:100F30007047704710B5044616F00EFF204610BDEE
:100F4000054A02606422828001210022C28002815F
:100F50008172C26002617047703F04000161704796
:100F6000818070478A4238BF0A46C180028170473B
:100F700010B50446FFF7E0FE024A13780133137000
:100F8000204610BD40630020014B1878704700BF19
:100F900040630020C06803681B6A1847A0F1040082
:100FA000FFF7F8BFC06803685B6A1847A0F1040048
:100FB000FFF7F8BFC06803689B6A1847A0F10400F8
:100FC000FFF7F8BFC0680368DB6A1847A0F10400A8
:100FD000FFF7F8BFC06803681B6B1847A0F1080053
:100FE000FFF7F8BFC06803685B6B1847A0F1080003
:100FF000FFF7F8BFC06803689B6B1847A0F10800B3
:10100000FFF7F8BFC06810B40468E46BA4465DF84D
:10101000044B6047A0F10800FFF7F4BFC068036805
:101020001B6C1847A0F10800FFF7F8BFC068036801
:101030005B6C1847A0F10800FFF7F8BFC0680368B1
:101040009B6C1847A0F10800FFF7F8BFC068036861
:10105000DB6C1847A0F10800FFF7F8BFD0F870313B
:1010600013B100F5AE7018477047D0F8743113B162
:1010700000F5AE701847704730B414461A4623681E
:101080005D6A9DF8083000F5AE71AC46204630BC74
:1010900060477047704770B5054600F5AE7411465D
:1010A0002046FFF783FED5F868311BB12046BDE826
:1010B0007040184770BDD0F86C3110B500F5AE74B3
:1010C0000BB1204698472046BDE81040FFF773BE9D
:1010D00010B4144600F5AE711A4620465DF8044B74
:1010E000FFF7F0BE10B4144600F5AE711A46204664
:1010F0009DF804305DF8044B00F050BAC0680368F6
:10110000DB681847C06803681B691847C0F8881077
:101110007047C0F89810704738B5D0F8A43004462E
:101120000D463BB900F016FA00B2800017F006FE3B
:10113000C4F8A40094F8A820D4F8A43043F82250AE
:1011400094F8A830013384F8A83038BDC068FFF7A0
:1011500007BFC068FFF706BF0F299CBF5A3140F890
:101160002120704710B50446FFF70EFF00B2800043
:1011700017F0E4FD04F1AC03036004F1B80343602D
:1011800004F1DC03836004F1FC03C36004F58473A1
:101190000361052384F8A030C4F89C0010BD2DE93C
:1011A000F043D0F88C10A5B0002304468DF81C3015
:1011B000E1B10DA800F018FA0DA800F047FA0228D6
:1011C00005468CBF152314238DF84C000DA88DF80F
:1011D0004D3000F039FA2A460146C5F114050DF1EB
:1011E0004E0017F0BBFDEDB2012601E016250E46BC
:1011F000D4F8881039B30DA800F0F6F90DA800F066
:1012000025FA431CAB4280461DDA1627774324ABF0
:101210003B4402288CBF0622022203F8440C03F848
:10122000432C0DA800F010FA24AB1F44014642469F
:10123000A7F14200023D17F091FD0136C8EB05050C
:10124000F6B205F0FF05D4F89010D1B194F89420CF
:10125000BAB1022D15D9531C1620AB4200FB06F083
:1012600024AB0344A4BF023DEAB2FF2503F8442C9B
:1012700003F8435C24AB1844423817F06FFD013685
:10128000F6B2D4F89850BDB1284617F087FEC0B228
:1012900014288ABF14238DF81C008DF81C309DF88B
:1012A0001C2090428CBF082009208DF81D00294683
:1012B0000DF11E0017F052FDD4F89C3013B92046F2
:1012C000FFF750FF002742F6030804F1040994F8E1
:1012D000A0309F4205DB002742F6030804F108090D
:1012E0001BE0D4F89C3053F827502846FFF729FD1F
:1012F000404506D10DB1281F00E028464946FFF7BA
:10130000F4FD0137E3E7D4F8A43053F8275028461A
:10131000FFF717FD404505D0013794F8A8309F42EC
:10132000F1DB07E00DB1281F00E02846494600F038
:1013300049F9F1E74BB104F594712046FFF7ECFE53
:1013400004F59A712046FFF7E7FEE06894F8A810CC
:1013500002680491D4F8A410039194F8A0100291AB
:101360009DF81C30D4F89C10019107A9003300911E
:1013700018BF01239568314613AAA847E06803689F
:101380001B6D984725B0BDE8F08338B5D0F89C3088
:1013900004460D460BB9FFF7E5FE94F8A020D4F8FB
:1013A0009C3043F8225094F8A030013384F8A030E8
:1013B00038BDFFF7EABF0000154B10B503F1680216
:1013C00003600446803342608360FFF79BFED4F8DD
:1013D000A40008B117F0BAFCD4F89C0008B117F0CB
:1013E000B5FC04F5987000F0BBF804F58270FFF7C7
:1013F00017FD04F1D800FFF713FD04F1B400FFF767
:101400000FFD04F1100000F0FFFD204610BD00BFED
:10141000F83F040010B50446FFF7CEFF204616F053
:101420009BFC204610BDB430FFF7EBBC07B502AB08
:10143000022223F8021DD8301946FFF706FD03B03B
:101440005DF804FB2DE9F843354BDFF8E890DFF851
:10145000E88003F108020446026000F1100703F17E
:1014600070028833002542608360384601F004FA38
:1014700004F1B406C4F88850C4F88C50C4F89050F5
:1014800084F89450C4F89850C4F89C5084F8A05044
:10149000C4F8A45084F8A850224904F1AC0000F02C
:1014A0009BF81323022220493046FFF7E3FC022376
:1014B0001A461E4904F1D800FFF7DCFC494604F146
:1014C000FC0000F089F804232022414604F58270D4
:1014D000FFF7D0FC494604F5947000F075F820221F
:1014E000414604F5987000F043F8214604F5AE70CB
:1014F000FFF765FC10222946E76004F5B47017F089
:1015000038FC0B493046FFF77CFC29462046FFF7A4
:101510008DFFE0682146FFF721FD2046BDE8F883F6
:10152000F03F0400CC3F0400D13F0400D63F04004C
:10153000E53F0400DB3F0400E03F040010B5044633
:10154000FFF7FAFB024A137801331370204610BDEF
:1015500041630020014B1878704700BF41630020B1
:10156000704710B5044616F0F7FB204610BD00008A
:1015700038B504461546043042F60302FFF7DEFF95
:10158000054B23600023A572E372A36284F8223026
:101590006362204638BD00BFA040040070B5044619
:1015A000C3720D460C3011461A4617F0D7FB0123C3
:1015B00084F82230A36A23B121462846BDE8704052
:1015C000184770BD4162704710B54FF42052044671
:1015D000FFF7B4FF204610BD10B54FF4205204466B
:1015E000FFF7C6FC204610BDF7B504460023216076
:1015F000037508460E468DF804308DF805308DF8D9
:10160000063017F0CBFC451E002D1ADB277D0F2F6F
:1016100017D8735D2D2B01D1013510E0721900210F
:1016200012F8012C8DF8042001A810228DF8053045
:1016300017F0DEFD27443871237D01332375023D09
:10164000E2E7204603B0F0BD04307047007D7047EC
:1016500071DF704772DF704773DF704775DF704767
:1016600076DF704777DF704778DF70477ADF704743
:101670007CDF70477EDF70477FDF704786DF704713
:1016800090DF704792DF704796DF704798DF7047B2
:1016900099DF7047A0DF7047A2DF7047A3DF704774
:1016A000A4DF7047A6DF7047A9DF704760DF70478F
:1016B00061DF704762DF704763DF704753DF704759
:1016C00010DF704711DF704790F85C00003018BFE2
:1016D0000120704770B590F86D600023B34214DAB2
:1016E0001A01056FAC18AA588A420CD1E38973B16C
:1016F000227B02F0020202F0FF0342B190F8740074
:1017000080F0010070BD0133E8E7002070BD18468D
:1017100070BD70B590F86D600023B3421ADA1A01FB
:10172000056FAC18AA588A4212D1E189A1B1227B77
:1017300002F0020202F0FF0382B1012380F874304C
:101740000022008FFFF7A0FFB0FA80F0400970BDC3
:101750000133E2E7002070BD084670BD184670BD39
:1017600070B590F86D600023B3421CDA1A01056F62
:10177000AC18AA588A4214D1E389B3B1227B13076B
:1017800004D590F8740080F0010070BD02F00402EE
:1017900002F0FF034AB190F85C00003018BF01204E
:1017A00070BD0133E0E7002070BD184670BDF0B594
:1017B00090F86DE085B0002474452FDA2501076F9D
:1017C0007E197D598D4227D1F4894CB3357B15F0B4
:1017D0000C0127D090F85C1021B315F0080F14BF4E
:1017E00001250225ADF80A300139012380F85C108B
:1017F0008DF8045080F87430002501A9008F8DF811
:101800000550ADF80640ADF808500392FFF73EFFD3
:10181000B0FA80F0400906E00134CDE7002002E094
:10182000204600E0084605B0F0BD70B590F86D6048
:101830000023B34210DA1A01056FAC18AA588A4285
:1018400008D1E08948B1237B13F0300F14BF012089
:10185000002070BD0133ECE7002070BD7FB590F82B
:101860006D600023B3422EDA1A01056FAC18AA5836
:101870008A4226D1E28942B3217B11F0300326D07F
:10188000012311F0100F14BF194602211A44ADF8BC
:101890000210ADF80620002102228DF80510ADF8E7
:1018A0000810ADF80A2080F874306A4401A9008F4E
:1018B0008DF804300392FFF7E9FEB0FA80F040099A
:1018C00006E00133CEE7002002E0104600E01846B3
:1018D00004B070BD03681B6C18477FB590F86D604D
:1018E0000023B3422ADA1A01056FAC18AA588A42BB
:1018F00022D1E28922B3237B13F030034FF00001A1
:1019000020D001231A44ADF806200222ADF80210BF
:101910008DF80510ADF80810ADF80A2080F8743085
:101920006A4401A9008F8DF804300392FFF7AEFEE0
:10193000B0FA80F0400906E00133D2E7002002E06F
:10194000104600E0184604B070BD11F1270F08B52D
:1019500014DB11F11D0F14DB11F1130F14DB11F166
:101960000F0F14DB11F10B0F14DBCA1D15DBCB1CA1
:1019700016DB0029D4BF0020042013E06FF02700FD
:1019800010E06FF01D000DE06FF013000AE06FF043
:101990000F0007E06FF00B0004E06FF0070001E0BC
:1019A0006FF00300FFF75EFEB0FA80F0400908BD5B
:1019B0001321008FFFF754BE07B501466846FFF7B5
:1019C00047FE086920B103680DF10102DB69984701
:1019D00003B05DF804FB000013B5044602A8002321
:1019E00040F8043DFFF76AFE019816F011FC084B21
:1019F000002216F073FC16F053FF236933B11A6806
:101A000000EE100A126A21461846904702B010BD37
:101A10000000D03F704710B5044686B00021182260
:101A2000684617F0A6F9A37A002B14BF00230323FE
:101A30008DF80030A38868460A221B0193FBF2F35D
:101A4000ADF81030FFF708FE06B010BD2DE9F043E9
:101A5000054690F85D008FB00C46002314268342A3
:101A60005DDA06FB03F2296E8F188A58A24207D16D
:101A70002046FFF723FAC30751D57B6813B94EE020
:101A80000133ECE795F833600DF11808324605F1A3
:101A90001401404617F062F9236820461B699847F5
:101AA00004300644F6B21F2E39D87868FFF747F99C
:101AB00001466846FFF798FD236895F833701B6967
:101AC000204698470EAB1F44033007F8200C95F8CA
:101AD00033703B441622684603F81F2CFFF7B4FD11
:101AE0000237038828F80730236895F83370DB68DD
:101AF00020469847236881461B692046984704374B
:101B0000474402464946384617F028F900231A464A
:101B100031464046FFF79EFD6C63012000E0002047
:101B20000FB0BDE8F0832DE9F047D4B04FF48E73C9
:101B300004460DF10A010DA8ADF80A30FFF7B8FD13
:101B40000346002840F04482BDF83420302A00F0DB
:101B50003C8111D8112A5CD004D8012A21D0102A46
:101B600027D035E2142A00F0C780192A00F0D0806F
:101B7000132A40F02D829BE0382A00F0DA8106D843
:101B8000322A00F06481362A00F0BA8120E2502A1D
:101B900000F0D180522A00F01281392A40F01882D8
:101BA000ECE194F85C209DF83C30134484F85C3000
:101BB0000EE2BDF83800208705A9FFF77BFD2069FC
:101BC0009DF8143084F85C3028B103680DF13D02B3
:101BD0001B6821469847E288052A12D92389B3F564
:101BE000486F0ED8ADF816300023ADF8183005A9AF
:101BF0004FF4C873208FADF81420ADF81A30FFF7FA
:101C00002DFD94F86430002B00F0E28100220121C8
:101C100009E14FF6FF72228784F85C0005464FF019
:101C20001409804694F85D309D4216DA276E09FB50
:101C300005F6BB19B85983F8108083F81180FFF7B7
:101C40003FF940B1206930B10368BA59D3F814A004
:101C500021460023D0470135E4E7206918B1036825
:101C600021465B68984700230C20194694F86420AD
:101C7000934202DB0023184605E0A26E00FB03221C
:101C800001339160F2E794F86D20934208DA216FF6
:101C90001A01114401330873216F0A44D081F2E71D
:101CA000002384F87430236820469B6998478FE1AD
:101CB000E068002800F08681FFF749F8002840F02E
:101CC0008181012303228DF80F3062F306138DF812
:101CD0000C3007238DF80D30102300218DF80E30C5
:101CE000A36D05938DF8101009910A910B9106913F
:101CF000079105AB03AA68E1A16DBDF84420488AAD
:101D0000904218BF1946208F1A46FFF7B7FC5FE1D3
:101D10009DF83C20002A40F05B81E06820B11C2344
:101D200004F13C01FFF726F82069002800F05081FB
:101D300003689B68E1E0BDF83A8006464FF014095D
:101D400094F85D309E4280F24381216E09FB06F3D8
:101D5000CF183A8942450CD12069002800F038811B
:101D600003689DF8442000921D693A680DF146030E
:101D700023E1BA89424520D19DF847009DF84620CD
:101D800042EA002295B202F001023A74C5F3400221
:101D90007A7415F00305C85818BF0125FFF790F8AD
:101DA000A8420AD02069002800F0128103683A682E
